:020000040800F2
:100000005811002029020008B3170008F51600084F
:10001000B11700081F040008B933000800000000F1
:10002000000000000000000000000000311900087E
:1000300041040008000000002F1900083D190008C5
:10004000430200084302000843020008430200087C
:10005000430200084302000843020008430200086C
:10006000430200084302000843020008430200085C
:10007000430200084302000843020008430200084C
:10008000430200084302000843020008430200083C
:10009000430200084302000843020008430200082C
:1000A000430200084302000843020008430200081C
:1000B000430200084302000843020008430200080C
:1000C00043020008430200084302000843020008FC
:1000D00043020008430200084302000843020008EC
:1000E00043020008430200084302000843020008DC
:1000F00043020008430200084302000843020008CC
:1001000043020008430200084302000843020008BB
:1001100043020008430200084302000843020008AB
:10012000430200084302000843020008430200089B
:10013000430200084302000843020008430200088B
:10014000430200084302000843020008B5170008F4
:10015000430200084302000843020008430200086B
:10016000430200084302000843020008430200085B
:100170004302000843020008430200080000000098
:10018000430200084302000800F002F800F03CF8C7
:100190000AA090E8000C82448344AAF10107DA45E2
:1001A00001D100F031F8AFF2090EBAE80F0013F0F8
:1001B000010F18BFFB1A43F0010318474C3200002F
:1001C0006C320000103A24BF78C878C1FAD85207C0
:1001D00024BF30C830C144BF04680C6070470000C1
:1001E0000023002400250026103A28BF78C1FBD840
:1001F000520728BF30C148BF0B6070471FB503F0DE
:10020000F5F81FBD10B510BD00F0CFF81146FFF78F
:10021000F5FF03F0E2F800F0EDF803B4FFF7F2FFAA
:1002200003BC00F0F5F80000094880470948004782
:10023000FEE7FEE7FEE7FEE7FEE7FEE7FEE7FEE796
:10024000FEE7FEE704480549054A064B70470000F3
:10025000D119000889010008580B0020581100200E
:10026000580D0020580D002053EA020C00F0698060
:100270002DE9F04B4FF00006002B1FBFB3FA83F5BA
:1002800003FA05F424FA05F65E4012BF1643B2FAEB
:1002900082F502FA05F4C5F120051EBF22FA05FC1D
:1002A00044EA0C04203556EA044C4FEA144418BFC3
:1002B000641C4FF000084FF00009904271EB030CF2
:1002C00039D3002919BFB1FA81F701FA07F6B0FA5C
:1002D00080F700FA07F6C7F120071EBF20FA07FCD7
:1002E00046EA0C062037B6FBF4FCA7EB0507103FE7
:1002F00007F01F0BCBF120060CFA0BFB2CFA06F6CD
:1003000044BFB3460026202FA4BF5E464FF0000B2B
:100310005BEA060C08BF4FF0010B19EB0B09ABFBB6
:10032000027C48EB0608C01B06FB02CC0BFB03CC8F
:1003300071EB0C01C1E70B46024641464846BDE859
:10034000F08B13B54FF000004FF00001AFF30080C9
:10035000BDE81C4070474FF0000200B513469446BC
:100360009646203922BFA0E80C50A0E80C50B1F10D
:100370002001BFF4F7AF090728BFA0E80C5048BF21
:100380000CC05DF804EB890028BF40F8042B08BFBF
:10039000704748BF20F8022B11F0804F18BF00F8BB
:1003A000012B7047704770477047754600F02CF876
:1003B000AE4605006946534620F00700854618B052
:1003C00020B5FFF73FFFBDE820404FF000064FF09B
:1003D00000074FF000084FF0000B21F00701AC467A
:1003E000ACE8C009ACE8C009ACE8C009ACE8C00999
:1003F0008D46704710B50446AFF300802046BDE837
:100400001040FFF70ABF000000487047F80A0020BC
:1004100001491820ABBEFEE7260002007047FEE748
:10042000002070470020704710B5044801F002FC1E
:10043000002801D04FF0FF3010BD00001C0100204B
:10044000704772B6FEE7000070B5044600F006F98A
:100450000546601C02D004480078044400F0FEF811
:10046000401BA042FAD370BD880000202DE9F84F50
:10047000DFF8BCA10022012503264FF00F090AF185
:10048000040BAAF1040E00BF0B6805FA02F4234026
:10049000A34270D10F7907F00307012F01D0022F7B
:1004A00016D187684FEA420806FA08FC27EA0C07CB
:1004B000D1F80CC00CFA08FC4CEA070CC0F808C0D4
:1004C0004768A7430C79C4F3001494403C4344604C
:1004D0000C79E443A4070AD0C4684FEA420C06FA38
:1004E0000CF7BC438F6807FA0CF72743C7600C79F9
:1004F00004F00304022C12D1D40800EB840CDCF8C5
:1005000020405707FF0E09FA07F824EA0804D1F83B
:10051000108008FA07F848EA0408CCF8208004683C
:100520004FEA420C06FA0CF7BC430F7907F00307B9
:1005300007FA0CF7274307604C6814F4403F70D06B
:100540003C4C276847F480472760246822F0030763
:1005500004F480440094384C07EB040CDCF80848A1
:1005600097074FEA177809FA08F7BC43334FB842A8
:1005700002D1002724E054E0314FB84201D10127D5
:100580001EE0304FB84201D1022719E02E4FB84289
:1005900001D1032714E02D4FB84201D104270FE009
:1005A0002B4FB84201D105270AE02A4FB84201D1AA
:1005B000062705E0284FB84201D1072700E00827A9
:1005C00007FA08F72743CCF80878DAF800405746CE
:1005D000D1F804C09C435FEACC2C00D51C433C609E
:1005E000DBF800405F46D1F804C09C435FEA8C2CE6
:1005F00000D51C433C60DEF800407746D1F804C0CB
:100600009C435FEA8C3C00D51C433C60084F083F8C
:100610003C68D1F804C09C435FEACC3C00D51C4345
:100620003C60521C102AFFF42FAFBDE8F88F000089
:10063000083C0140443802400030014000000240C4
:100640000004024000080240000C0240001002407A
:100650000014024000180240001C0240014880685B
:100660007047000088000020024881680278114429
:1006700081607047880000200B4810B5016841F484
:1006800000710160016841F480610160016841F41A
:1006900080710160032000F06FF80F2000F006F871
:1006A00000F024F8002010BD003C024070B50D4D54
:1006B00004464FF47A712878B1FBF0F00A490968D2
:1006C000B1FBF0F001F002F848B9102C07D200227B
:1006D0002146501E00F030F800206C6070BD0120F3
:1006E00070BD000088000020940000200A4808B572
:1006F000016841F480410160006800F4804000908E
:100700000548001F016841F080510160006800F059
:100710008050009008BD000044380240002809DBEA
:1007200000F01F02012191404009800000F1E0200B
:10073000C0F8001170470000F0B40E4B1B680C4667
:10074000C3F30223C3F10705042D00D90425191DA5
:10075000072901D2002300E0DB1E012606FA05F17D
:10076000491E214099409E40761E16403143F0BC00
:1007700002F023BE0CED00E0064900F00702086815
:100780004FF6FF03184040EA0220034A1043086076
:10079000704700000CED00E00000FA0570470068AB
:1007A000416200207047F0B50368586A39B19C6A0D
:1007B0004FF4827600EB144400204D1E0AE040EA1C
:1007C000024098620FE006EB8007DF59401C04EB03
:1007D0001744C0B2A842F6D344EA02404FF48072F4
:1007E00002EB810158500020F0BDD0F8E00401F088
:1007F0003EBD01EBC10200EB8202D0F8E004126AB8
:1008000001F08FBC01EBC10200EB8202D0F8E004E2
:10081000D2F8602201F0E1BCD0F8E00401F029BD7B
:100820000A0601F00F0101EBC10100EB810101D5C6
:10083000143101E001F51571006802F00BBC70B5D0
:1008400004460B0601F00F0000EBC00104EB810130
:100850004FF001024FF0000502D54A75143103E054
:1008600081F8555201F51571087094F89404012827
:1008700008D084F89424206802F006F984F894548F
:10088000002070BD022070BD70B5044601F00F005D
:100890002279904201D9012070BD0B0601F00F01B1
:1008A00001EBC10104EB81014FF001024FF00005A3
:1008B00002D54A75143103E081F8555201F51571DE
:1008C0008D70087094F89404012808D084F894245A
:1008D000206802F04BFA84F89454002070BD022086
:1008E00070BD2DE9F04104460F0601F00F0000EB4A
:1008F000C00104EB81014FF001064FF0000502D565
:100900004E75143103E081F8555201F51571C2F3AB
:100910000A0208708A600B714A7802B14883022B80
:1009200000D14D7194F89404012809D084F894649E
:10093000206801F0F7FF284684F89454BDE8F08160
:100940000220FBE710B501F00F0404EBC40100EB3B
:100950008101C1E998230023C1F8683281F855323A
:1009600081F85442837901F51571012B00D1CA61D8
:100970008279006802F052FA002010BD70B504467A
:100980000D4601F00F002179884201D9012070BD88
:1009900029064FF000064FF0010206D500EBC0011A
:1009A00004EB81014A75143107E005EBC50104EB46
:1009B000810181F8556201F515718A70087094F80B
:1009C0009404012807D084F89424206802F0FAF9EE
:1009D000280702D007E0022070BDA17904F29C42F2
:1009E000206802F097F984F89464002070BD10B577
:1009F00001F00F0404EBC40100EB8101C1E90823FD
:100A000000238B6201234B7501F8144F8379012B6E
:100A100000D1CA618279006802F000FA002010BD9E
:100A20002DE9FC5F05680446284602F0AFFB00286C
:100A30007DD1206802F0D6FB002878D0D5F80808D0
:100A4000C0F30D20C4F8D404206802F0CBFB80076B
:100A500004D52068416901F002014161206802F07B
:100A6000C1FBC10604F29C40009034D52068816926
:100A700021F0100181612F6A07F00F0000EBC00028
:100A800004EB8006C7F3434006F51576022802D032
:100A9000062811D01AE047F6F070074216D0C7F3C7
:100AA0000A1217462846F16802F0A0FBF0683844A5
:100AB000F0607069384408E008222846009902F086
:100AC00095FB7069C7F30A11084470612068816959
:100AD00041F010018161206802F084FB00034FF0B7
:100AE000080B4FF0000A4FF001097CD50026206862
:100AF00002F057FB074674E0F80770D0F1B22068A7
:100B000002F068FB8046C00707D005EB4611C1F82C
:100B1000089B3146204600F053FE5FEA087024D55A
:100B200005EB4611C1F808BB2068016C00E023E228
:100B300000EB46100191D0F8082BFB4B994205D9E8
:100B4000110403D54FF40041C0F8081B204600F003
:100B5000F6FAF5490198884207D9A079012804D10D
:100B600020680121009A02F0D5F85FEAC86004D538
:100B700005EB46111020C1F8080B5FEA88701DD5FF
:100B80006869000605D5D5F8040840F48061C5F809
:100B9000041806EBC60004EB800090F8571200F52D
:100BA0001570012905D180F803A0F1B2204600F0AC
:100BB000E9F905EB46110220C1F8080B5FEA8860ED
:100BC00004D505EB46102021C0F8081B5FEA8840D9
:100BD00005D505EB46104FF40051C0F8081B7F08FF
:100BE000761C002F88D1206802F0FCFA40036ED5F5
:100BF000206802F0CFFA0746002666E0F80762D0C8
:100C0000F1B2206802F0D4FA8046C00723D006F083
:100C10000F01D5F8342809FA01F18A43C5F83428C0
:100C200005EB4611C1F80899A07901280FD106EB10
:100C3000C60004EB8000D0E907211144016236B9F7
:100C4000606A20B920680121009A02F063F8F1B2CD
:100C50002046FFF7CEFD5FEA087003D505EB46118D
:100C6000C1F808B95FEAC86004D505EB4611102049
:100C7000C1F808095FEA486004D505EB4610402139
:100C8000C0F808195FEA887016D53146284602F088
:100C900052FA06EBC60004EB8000C17D1430012936
:100CA00005D180F803A0F1B2204600F067F905EB0A
:100CB00046110220C1F808095FEA086003D53146F1
:100CC000204600F0E3FD7F08761C002F96D12068B7
:100CD00002F088FA002811DAD5F8040820F00101A2
:100CE000C5F8041894F8CC0401282BD0204600F055
:100CF0000BFA2068416901F000414161206802F06F
:100D000071FA00050BD5D5F80808C00702D02046B7
:100D100000F03EFA2068416901F4006141612068F9
:100D200002F060FAC00467D5D5F8040820F001008D
:100D3000C5F804081021206802F0FDF900214FF6E3
:100D40007F3220E084F8CCA400212046FFF726FD66
:100D5000CFE700BF05EB4110C0F80829D0F80039F3
:100D600023F40013C0F80039C0F8082BD0F8003B7A
:100D700023F40013C0F8003BD0F8003B43F00063BD
:100D8000C0F8003B491C20798842E3D8D5F81C08FC
:100D900040F00111C5F81C18E07B002828460DD052
:100DA000D0F8840840F00B01C5F88418D5F8440841
:100DB00040F00B012846C5F844180DE0D0F814089F
:100DC00042F22B010843C5F81408D5F8100840F08A
:100DD0000B012846C5F81018D0F8000820F4FE6171
:100DE000C5F80018A1792068009A01F093FF2068E7
:100DF000416901F480514161206802F0F3F98004F7
:100E000015D5206801F0CEFD206802F0B2F9E0713E
:100E100000F070FA0146E279206802F045FA2046B7
:100E200000F05CF92068416901F4005141612068DB
:100E300002F0D8F9000707D5204600F069F92068CC
:100E4000416901F008014161206802F0CBF9000618
:100E500016D5A86920F08001A96101260DE000BF28
:100E600006EBC60004EB800090F85702012803D17E
:100E7000F1B22046FFF7D4FC761C2079B042EFD8BF
:100E8000206802F0AFF9C0021FD501264F4614E0DA
:100E900005EB4610D0F8000906EBC60104EB810112
:100EA0000A7E012A08D1002806DACF75F0B240F098
:100EB00080012046FFF7B4FC761C2079B042E7D8C9
:100EC0002068416901F480114161206802F08AF9CB
:100ED000800234D501204A4629E000BF05EB4011CD
:100EE000D1F8001B00EBC00304EB830393F85862B6
:100EF000012E1BD1002919DA94F8D464C1F3004102
:100F000006F001068E4211D183F85722A96941F0FB
:100F10008003AB616969090608D4D5F8040840F478
:100F20000070C5F8040805E00A30544F401C2179D0
:100F30008142D3D82068416901F4001141612068E1
:100F400002F050F9400007D52046FFF74EFC20681C
:100F5000416901F080414161206802F043F9400796
:100F60000AD520684568680702D52046FFF754FC7B
:100F70002068416829434160BDE8FC9FD0F8E00447
:100F800001F0C5B9D0F8E00401F0D5B9F8B5040016
:100F900005D094F895042668002510B106E00120DC
:100FA000F8BD84F89454204600F056F8032084F8E5
:100FB0009504B6F1A04F00D1A571206801F0A4FE00
:100FC000207C8DF8000094E80F0001F0F9FC022667
:100FD000B8BB0021206802F028F990BB002001274F
:100FE0000DE000BF00EBC00104EB81014F750875F7
:100FF000C8850D76CD610D62401CC0B24D6221796D
:101000008142EFD8002011E000EBC00104EB810128
:1010100081F8555281F8540281F85852C1F85C5257
:10102000C1F86052401CC0B2C1F8645221798142BB
:10103000EAD8207C8DF8000094E80F0001F0A6FDAE
:1010400010B184F89564AAE7657484F895742068F3
:1010500001F08EFD0020F8BD10B586B004461421C5
:101060006846FFF778F92068B0F1A04F2FD11948F2
:101070000021026842F001020260006800F00100F5
:1010800005904FF4C05000900220CDE901010320EB
:1010900003900A20049069460F48FFF7E7F90D48CE
:1010A000001D016841F0800101600A4814300168A8
:1010B00041F4804101600068002200F48040059006
:1010C00011464320FFF738FB4320FFF727FB06B00C
:1010D00010BD0000303802400000024070B50446E8
:1010E000C079012570B1022801D0FFF7AAF929467D
:1010F000D4F8E00401F08EF9D4F8E004BDE87040C3
:1011000001F042B90025F2E7D0F8E00401F06BB934
:10111000D0F8E00401F071B910B5044690F89404D9
:1011200001280AD0012084F894046174206802F038
:10113000AAF8002084F8940410BD022010BDD0F855
:10114000E02400F29C41104601F070B910B504464D
:10115000006894F89414012909D0012184F89414AA
:10116000C168490609D5617B012902D005E002204A
:1011700010BD816B41F480318163206801F0B9FFBB
:10118000206801F0E7FC002084F8940410BD000002
:1011900010B50446D0F8E00401F08AF92068D0F8D0
:1011A000001E41F00101C0F8001EE07A002804D0C2
:1011B0000248016841F00601016010BD10ED00E039
:1011C0002DE9F0470E46050065D0DFF81481D8F808
:1011D0000000F7B200F00700B04207D288F80070B4
:1011E000D8F8000000F00700B04254D128683D4C08
:1011F000810712D5400703D5206840F4E0502060F5
:101200002878000703D5206840F4604020602068FB
:10121000A96820F0F000084320602878C0072DD08E
:10122000304968680839012812D0022813D00328F1
:1012300011D00968890700292DDA216821F00301FE
:1012400001432160FFF70AFA814641F2883A0EE035
:1012500009688903EFE709688901ECE7FFF7FEF900
:10126000A0EB0901514502D90320BDE8F0872068B1
:10127000696800F00C00B0EB810FEFD1D8F80010D6
:10128000404601F00701B14207D90770006800F03D
:101290000700B04201D00120E7E72878400705D5D4
:1012A0002068E96820F4E0500843206028780007AF
:1012B00006D52068296920F4604040EAC10020601A
:1012C00000F01EF82168084AC1F30311515CC840C0
:1012D0000649086006480068FFF7E8F90020C4E7FF
:1012E000003C024008380240F63300089400002019
:1012F0008C00002001480068704700009400002026
:10130000154810B5006810F00C02144813D04110B5
:10131000042A0FD0082A0ED10F4C241F22682368FC
:1013200002F03F025B0207D52068C0F38810A0FBE3
:10133000010106E0084610BD2168C1F38811A1FB38
:1013400000010023FEF790FF2168C1F30141491C11
:101350004900B0FBF1F010BD083802400024F40051
:101360002DE9F84F04006ED02078DFF84C93C007C9
:10137000A9F104054AD009F104000168C1F3810113
:10138000012908D00068C0F3810002280AD1D9F8E9
:101390000000400206D52868800337D56068002821
:1013A000E1D033E06068B0F5803F10D0B0F5A02FF9
:1013B000286810D020F480302860286820F480202D
:1013C00028606068A8B1FFF749F906460DE0286873
:1013D00040F48030F4E740F480202860F7E700BF55
:1013E000FFF73CF9801B642873D828688003F7D581
:1013F0000CE0FFF733F9064605E000BFFFF72EF9D2
:10140000801B6428F0D828688003F7D42078DFF8A0
:10141000AC8280074FF0000A3ED5A748001D016846
:1014200011F00C0F08D00068C0F3810002280BD126
:10143000D9F80000400207D42868800716D5E06874
:10144000012800D112E033E1E068B8B10120C8F80A
:101450000000FFF703F9064605E000BFFFF7FEF8BE
:10146000801B0228C0D828688007F7D52868216922
:1014700020F0F80040EAC10028600DE0C8F800A0A4
:10148000FFF7ECF8064604E0FFF7E8F8801B0228B7
:101490001FD828688007F7D42078000722D5864F08
:1014A00087486169703771B101210160FFF7D6F893
:1014B000064604E0FFF7D2F8801B022809D83868F6
:1014C0008007F7D50EE0C0F800A0FFF7C7F8064682
:1014D00005E082E0FFF7C2F8801B02287DD838685B
:1014E0008007F7D42078400768D5DFF8CCB1002713
:1014F0000BF13C0BDBF80000C0000BD4DBF8001054
:1015000041F08051CBF80010DBF80000012700F01B
:10151000805000906B4E3068C00510D4306840F4A5
:1015200080703060FFF79AF8009005E0FFF796F8BA
:101530000099401A022850D83068C005F6D55E4E92
:10154000A0686C3601280FD00528306810D020F034
:1015500001003060306820F004003060A068B8B14D
:10156000FFF77CF800900FE0306840F00100F4E7EE
:1015700040F004003060F7E7FFF770F80099411A77
:1015800041F28830814266D830688007F4D50EE099
:10159000FFF764F8009007E0FFF760F80099411A40
:1015A00041F28830814256D830688007F4D42FB198
:1015B000DBF8001021F08051CBF80010A069C8B30F
:1015C0003D49091D0968C1F3810102294AD0022859
:1015D000504607D0C8F8600000E03CE0FFF73EF856
:1015E00004463BE04746C8F86000FFF737F8064678
:1015F00005E000BFFFF732F8801B02282BD82868CF
:101600008001F7D4D4E907010843A16A2E4A4908AA
:1016100002EB0141626A41EA8211084394F82C10FE
:1016200040EA0161C9F8001001203866FFF716F89A
:10163000044606E03EE000BFFFF710F8001B02285A
:1016400009D828688001F7D534E000BFFFF706F815
:10165000001B022802D90320BDE8F88F286880010A
:10166000F4D427E00128F7D0D9F80000E26900F4AB
:10167000800191421CD1226A00F03F01914217D1B2
:1016800047F6C071626A0140B1EB821F10D1A26AB5
:101690004FF0FF3300F4403103EB5202B1EB024F45
:1016A00006D194F82C1000F07060B0EB016F01D0FF
:1016B0000120D1E70020CFE7043802400000474274
:1016C000800E4742007000400000FFFF10B5401E32
:1016D000B0F1807F01D3012010BD4FF0E0246061A4
:1016E0000F21601701F069FE0020A0610720206132
:1016F000002010BDFEE70000F0B500230A243025CD
:1017000037261F4611E000BFB4EB107F02D905EB6E
:10171000107C01E006EB107C01F813C001EB430CD8
:1017200000015B1C8CF80170DBB29342ECD3F0BD7E
:10173000094808B5016841F080010160016801F0C5
:1017400080010091016841F001010160006800F032
:101750000100009008BD00003038024010B50022A2
:101760000F49104800F0B8FC08B1FEF76AFE0E49B8
:101770000C4800F0C9FE08B1FEF763FE0B490948AA
:1017800000F06CFA08B1FEF75CFE064800F040FF7E
:10179000002803D0BDE81040FEF753BE10BD000086
:1017A000000000201C0100209C0000207800002088
:1017B000FEE7FEE70148FFF733B9000014060020FA
:1017C0002DE9F04103680D4604461E6C03EB4511FC
:1017D000D1F8080B94F806E04FF400474FF0200CC6
:1017E00004F29C42BEF1010F09D0DFF898E0764583
:1017F00039D1020432D500BFC1F8087B3FE0224B4B
:101800005FEA007E04D59E4239D90004F4D436E064
:101810005FEA806E02D5C1F808CB30E010F0280FE7
:101820002DD19E4201D90004E6D405EBC50004EB9E
:101830008000D1F8101BD0F87432C1F31201591A8C
:10184000C0F8681200F51570ADB903691BB1C26824
:101850001144C1600FE0012120680AE080060AD52A
:10186000C1F808CB07E035B9D4F8640218B90021F3
:10187000184601F04FFAE9B22046FEF7C3FF0020F8
:10188000BDE8F0810A31544F0A30544F2DE9F84F2A
:101890000E4601EBC60100EB810481460568D4E9E0
:1018A00009101434884202D90120BDE8F88F081AC3
:1018B000A168814200D20846C01C870805EB461883
:1018C0001BE000BFA0EB010AA068504500D2824691
:1018D0000AF10300870899F8060000901FFA8AF3BE
:1018E000F2B22846E16801F053FDE16801EB0A001D
:1018F000E060616901EB0A006061D8F8180980B204
:10190000B84205D3D4E90401814201D20028D9D1DB
:10191000D4E90401884208D806F00F01012088406C
:10192000D5F834188143C5F834180020BDE7704756
:1019300070470178407841EA00207047FEF794BE76
:1019400030B593B030216846FEF705FD14210CA890
:10195000FEF701FD1C480025016841F0805101603F
:10196000006800F0805011901848016841F48041EF
:1019700001600068022400F4804011900120009072
:10198000000401908001CDE9064004200890482021
:10199000CDE9090403200B906846FFF7E1FC08B18C
:1019A00072B6FEE70CA90F2081E831004FF4805099
:1019B000CDE90F0502210CA8FFF702FC002801D099
:1019C00072B6FEE713B030BD4038024000700040F0
:1019D0000248016841F470010160704788ED00E041
:1019E000D0F8D422002100EB8200D0F8C0020175AB
:1019F0000846704710B5D0F8D41200EB8102D2F837
:101A0000C00238B1D2F8C42241780078D268904739
:101A1000002010BD032010BD70B51E4E0446317865
:101A200000F076FB3078002500F00F0000EB80001E
:101A300004EB800080F82350C5617178204600F0E7
:101A400067FB707800F00F0000EB800004EB800073
:101A500080F86351C0F85C51D4F8D40204EB8000E4
:101A6000D0F8C01299B1D0F8C40280688047D4F889
:101A7000D40204EB8000D0F8C00200F04DFFD4F88F
:101A8000D40204EB8000C0F8C052C4F8BC5200205D
:101A900070BD0000D400002010B5D0F8D41200EBC7
:101AA0008102D2F8C0421CB12069012802D009E0AD
:101AB000032010BDD2F8C42261782078D268904704
:101AC00000202061002010BD0A21018000487047DD
:101AD0001001002070B5054681210A4800F09BFAEC
:101AE00004460121074800F096FA022105220CB1B4
:101AF000A180A27108B181808271292028800148CB
:101B000070BD0000D800002070B5054681210A484C
:101B100000F081FA04460121074800F07CFA022116
:101B200005220CB1A180A27108B1818082712920A7
:101B30002880014870BD0000D800002070B505461F
:101B400081210A4800F067FA04460121074800F0A5
:101B500062FA022105220CB1A180A27108B1818034
:101B6000827129202880014870BD0000D800002023
:101B70002DE9F0410446182000F0D0FE05004FF09A
:101B800000084CD0D4F8D402294E04EB8000022384
:101B9000C0F8C052C4F8BC523178052001F00F01E2
:101BA00001EB810104EB81010322C861717801F02E
:101BB0000F0101EB810104EB8101C1F85C01317877
:101BC000204600F0CCFB3078012700F00F0000EB3E
:101BD000800004EB8000022380F8237003227178D8
:101BE000204600F0BCFB707800F00F0000EB800096
:101BF00004EB800080F8637185F81480D4F8D40277
:101C000004EB8000D0F8C4024068804702232A46D3
:101C10007178204600F0AFFB0020BDE8F081D4F8D9
:101C2000D412022004EB8101C1F8C082F5E7000064
:101C3000D400002010B5D0F8D41200EB8101D1F807
:101C4000C02232B104490223497800F094FB0020FD
:101C500010BD032010BD0000D400002039B1D0F821
:101C6000D42200EB8200C0F8C41200207047032089
:101C70007047000038B5D0F8D42200EB820500226E
:101C8000D5F8C032ADF80020144633B10A7812F00E
:101C900060022AD0202A63D101E0032038BD4A78AF
:101CA000921E0A2A5CD2DFE802F00F085B5B5B5BE6
:101CB0005B130B058878586055E00122191D40E040
:101CC0004888000A98604EE0012203F1080138E0DC
:101CD000CA88022A02D900F06BF8DEE701221A61F5
:101CE000CA88194600F06FF83DE04A78062A10D0FD
:101CF00003DC3AB1012A33D135E00A2A24D00B2A79
:101D00002ED129E090F89C22032A29D1022269468B
:101D100017E04A882223B3EB122F07D1CA88252A5D
:101D200000D92522D5F8C4321B6808E02123B3EB83
:101D3000122F15D1CA880E4B092A00D909227BB16E
:101D4000194600F05CF80EE090F89C22032A07D1B7
:101D5000012203F10C01F4E790F89C22032A04D03D
:101D600000F026F80324204638BD8878D860FAE7CA
:101D70000401002010B5D0F8B82200245268904722
:101D800000B10324204610BD00207047002070479A
:101D9000134610B50A46002100F0EDFA002010BDF0
:101DA000134610B50A46002100F08FFB002010BD3D
:101DB00010B50446802100F069FB2046BDE81040C4
:101DC000002100F063BB10B50323C0F89432C0F8C3
:101DD0005421C0F858211346C0F864110A46002166
:101DE00000F0C9FA002010BD10B50521C0F894120A
:101DF00000231A46194600F0BEFA002010BD10B5A7
:101E00000223C0F8943242618261134641620A465D
:101E1000002100F05AFB002010BD10B50421C0F8CD
:101E2000941200231A46194600F04FFB002010BD03
:101E300010B50A46024903A000F01BF9004810BD86
:101E4000F8030020437573746F6D204849442043A4
:101E50006F6E6669670000001220088000487047B6
:101E60002000002010B50A46024903A000F001F945
:101E7000004810BDF8030020437573746F6D20484F
:101E8000494420496E746572666163650000000014
:101E900004200880004870471C00002010B50A4646
:101EA000024903A000F0E5F8004810BDF803002047
:101EB00053544D6963726F656C656374726F6E69BC
:101EC0006373000010B50A46024903A000F0D1F880
:101ED000004810BDF803002053544D3332204375A1
:101EE00073746F6D2048756D616E20696E746572D4
:101EF000666163650000000010B51A2008800A487A
:101F00000168001D0468001D0068081809D0082237
:101F10000649FFF7F1FB0549042210312046FFF77F
:101F2000EBFB0248801E10BD107AFF1F3600002018
:101F3000F8B504460020ADF8000048880D46010AB7
:101F400008295FD2DFE801F05E0409175E5E3C45B8
:101F5000D4F8B412207C0A6819E0207C02260028FC
:101F6000D4F8B80205D0C16A684688470146467071
:101F700039E0816AF8E7C0B2062843D2DFE800F012
:101F8000030A1014181CD4F8B402426805E069462C
:101F900090471CE0D4F8B402826892B3207CF6E744
:101FA000D4F8B402C268F8E7D4F8B4020269F4E7DE
:101FB000D4F8B4024269F0E7D4F8B4028269ECE7DD
:101FC000207CF0B9D4F8B802416B684688470146D6
:101FD00009E0207CA8B9D4F8B802016B68468847AC
:101FE000014607204870EA888AB1BDF8000040B178
:101FF000824200D90246ADF800202046FFF7FFFEDE
:10200000F8BDFFE729462046FFF7D2FEF8E7204655
:10201000FFF703FFF4E778B50E4642880178002504
:1020200004468A4212D9ADF800100AE0694600F071
:1020300019F84178052904D181780546B14205D0C7
:1020400000256188BDF800209142EFD8284678BD70
:102050000146002002E0401CC0B2491C0A78002A58
:10206000F9D170470A8803781A440A800178084435
:10207000704770B516460D46002820D00446FFF77D
:10208000E7FF022101EB40014FF40070814204D8C8
:102090002046FFF7DDFF4000801C3080307828703C
:1020A000032068700220002206E02954401CC0B2C0
:1020B0002A54401CC0B2641C21780029F5D170BD9F
:1020C00001004FF0000004D0012901D0022901D005
:1020D000032070470120704778B10023C0F8B83260
:1020E000C0F8C432C0F8D03209B1C0F8B41201212E
:1020F00080F89C12027000F0CBB80320704710B536
:10210000D0F8C802FEF7C0FBBDE81040FFF7D8BF0B
:1021100010B5D0F8C802FEF792FBBDE81040FFF7FB
:10212000CFBF70B50446002521B194F89C02032866
:1021300046D050E0D4F8941204F11400022939D1A9
:10214000818942688A420AD9511A416082890169AB
:102150001144016142682046FFF722FE0FE09142E0
:1021600014D10068884211D3D4F8981288420DD255
:10217000002211462046FFF713FEC4F898520023B0
:102180001A461946204600F0F6F813E094F89C022F
:10219000032808D1D4F8B802C16821B1C4F8D452D8
:1021A000C168204688478021204600F06FF920460C
:1021B000FFF71AFE94F8A00268B184F8A0520AE072
:1021C000D4F8B802426932B1C4F8D4524269204608
:1021D0009047002800D1002070BD10B504460022B1
:1021E00021B194F89C02032834D03EE0D4F8941234
:1021F00004F5AA70032938D1818943688B420ED92E
:10220000591A4160828901691144016142688089DB
:10221000824200D802462046FFF7BAFD25E094F836
:10222000AA0210F01F0003D0012802D0022800D01B
:10223000002294F89C02032808D1D4F8B80201695E
:1022400021B1C4F8D4220169204688472046FFF70F
:10225000E4FD0AE0D4F8B802836933B1C4F8D422AB
:10226000826920469047002800D1002010BD002040
:10227000704710B50024012180F89C12D0F8B822D4
:1022800022B152680179904700B10324204610BD65
:1022900010B5017839BB15490222C1F8E004C0F835
:1022A000C8124FF0A040086004200871CA710020D5
:1022B00088714A728872C87208738873C873084636
:1022C000FEF764FE08B1FEF7BCF880210748FEF770
:1022D00066FA402200210548FEF765FA80220121B6
:1022E0000248FEF760FA002010BD0000140600202E
:1022F0000A0601F07F01D0F8C80201EBC10100EB32
:10230000810001D5807D704790F85602704710B566
:10231000D0F8D42200EB8202D2F8B82222B190F891
:102320009C32032B02D004E0032010BD126A02B1DC
:102330009047002010BD10B5D0F8D42200EB8202E7
:10234000D2F8B82222B190F89C32032B02D004E0DC
:10235000032010BD526A02B19047002010BD10B595
:102360001C461346D0F8C8022246FEF7BAFABDE86A
:102370001040FFF7A5BE10B5D0F8C802FEF7E2FA8C
:10238000BDE81040FFF79CBE2DE9F0410026012575
:10239000044680F89C52C4F894626660C4F8A46253
:1023A00080F8A062D0F8B80230B1426822B10021B2
:1023B0002046904700B103260022402311462046C4
:1023C000FFF7CDFF402784F86351A4F860713B46C6
:1023D000002280212046FFF7C2FF84F82350278483
:1023E0003046BDE8F08190F89C12042903D190F8A2
:1023F0009D1280F89C120020704710B590F89C1236
:10240000032905D1D0F8B81211B1C96901B18847C3
:10241000002010BD01740020704710B5D0F8C8022C
:10242000FEF77AFEBDE81040FFF74ABE70B50446DD
:1024300000F2AA20054600F051F80120C4F89402E9
:10244000B4F8B002C4F8980294F8AA0210F01F0180
:102450000AD001290ED0022912D000F080012046B6
:10246000BDE8704000F012B829462046BDE8704033
:1024700000F0D0B829462046BDE8704000F013BAFD
:1024800029462046BDE8704000F05AB910B5D0F892
:10249000C802FEF773FABDE81040FFF711BE10B591
:1024A000D0F8C802FEF752FEBDE81040FFF708BEA4
:1024B00090F89C12042903D090F89C1280F89D1289
:1024C000042180F89C120020704710B5D0F8C80293
:1024D000FEF78DFABDE81040FFF7F2BD70B5054676
:1024E00011F8010B2870087868704C1C2046FFF723
:1024F00020FA6880A41C2046FFF71BFAA880A01CC5
:10250000FFF717FAE88070BD38B504460020ADF833
:102510000000A1B1C4F8B812D4F8D40204EB8000D2
:10252000D0F8B802C16A19B168468847C4F8D00229
:10253000D4F8D802401CC4F8D802002038BD0320CB
:1025400038BD02460020D2F8B832002B02D01B68FA
:1025500010461847704700002DE9F04188462B4E81
:102560008978002504463170012906D94146204664
:10257000FFF71EFC0320BDE8F08194F89C020227BF
:1025800002280CD003281DD041462046FFF710FC3E
:1025900031782046FFF7EEFB03252846EBE789B3A9
:1025A00020466160FFF7CDFF050004D0414620467C
:1025B000FFF7FEFB1DE02046FFF72FFC032084F809
:1025C0009C02EAE7C1B1606888421BD0C1B22046D4
:1025D000FFF7D0FB317820466160FFF7B2FF0500BE
:1025E00010D041462046FFF7E3FB21792046FFF754
:1025F000C1FB84F89C72D0E784F89C72204661602D
:10260000FFF7B8FB2046FFF708FCC6E7980000205C
:10261000FFF745BF2DE9F0410A78002512F060026E
:102620000CD0202A01D0402A7DD1D0F8D42200EB52
:102630008202D2F8B8229268904731E04B780022AB
:1026400001260A2B6FD2DFE803F041666E586E0850
:10265000056E2D29FFF76CFC67E004468888D8B921
:10266000C888C8B94888802816D200F07F0794F837
:102670009C02032810D084F89E7239462046FFF74A
:10268000CCFE2046FFF7C9FB1FB1022084F89C0254
:102690004BE084F89C6248E0204644E0FFF75CFF92
:1026A000054642E0CB88012B3DD190F89C32012BAE
:1026B00004D0022B02D0032B35D104E0826001222A
:1026C00000F1080116E00122011D13E090F89C22A0
:1026D000012A03D0022A01D0032A24D1CA88022A5F
:1026E00021D1C660D0F8A41209B10321C160022231
:1026F00000F10C01FFF783FB17E04A88012A02D0A2
:10270000022A03D00FE0C0F8A46216E08988090A03
:1027100080F8A01211E090F89C32012B08D0022B17
:1027200006D0032B04D0FFF743FB2846BDE8F08119
:1027300049880129F9D1C0F8A422FFF76EFBF4E71C
:102740002DE9F041054608780C790E464FF0000857
:1027500010F060000BD0202801D040286BD121461A
:102760002846FFF711FBFF2800D0D8B398E0707817
:10277000C8B3012824D003285DD195F89C02022813
:1027800002D0032857D10CE0002C54D0802C52D01A
:1027900021462846FFF77AFE80212846FFF776FE7D
:1027A0007EE0708840B93CB1802C05D0C88818B94B
:1027B00021462846FFF76AFE2846FFF72EFB6FE00A
:1027C00095F89C020228DFD0032866D1708888BB68
:1027D000600603D021462846FFF791FC2846FFF704
:1027E0001CFBBCE700E00AE0C5F8D402D5F8B8024B
:1027F0008268FAB1314628469047804650E095F805
:102800009C020027022802D0032846D114E00CB114
:10281000802C42D1200604F07F0000EB800005EB05
:10282000800101D5143101E001F5AA71022201F8FD
:102830000E7F2EE034E030E0200604F00F0000EBC5
:10284000800005EB80000AD590F8230028B304F03F
:102850007F0000EB800005EB800614360AE090F85C
:102860006301D0B104F07F0000EB800005EB80062F
:1028700006F5AA764CB1802C07D021462846FFF7F2
:1028800037FD10B10120B07300E0B773022206F1EA
:102890000E012846FFF7B3FA02E02846FFF788FA50
:1028A0004046BDE8F08170B50546087800240E4624
:1028B00010F0600003D0202801D0402827D195F8DF
:1028C0009C02012803D0022801D003281FD1B08820
:1028D000C1B201291AD8C1B22846FFF757FAFF281A
:1028E0000CD058B9D5F8B8128A683AB1C5F8D402F4
:1028F0008A68314628469047044600E00324F08861
:10290000204307D12846FFF788FA03E031462846DE
:10291000FFF74EFA204670BD704700000048704730
:10292000F805002070B50A78012302F00F054E78F3
:10293000AB401B4CD0F81C58012E17D045EA03437E
:10294000C0F81C3800EB4210D0F8002B12040BD456
:10295000D0F8002B0B890979C3F30A031A4344EA20
:1029600081410A43C0F8002B002070BD9BB21D437B
:10297000C0F81C5800EB4210D0F800391B04F3D407
:10298000D0F800390D890979C5F30A0589042B436C
:1029900041EA82510B432343C0F80039E4E70000C9
:1029A00000800010D0F800196FF30A01C0F8001978
:1029B000D0F8041841F48071C0F804180020704762
:1029C00070B50D460446C2F3072104981E4601293E
:1029D0001BD0E06840F04000E060204600F032F894
:1029E000C6F307210029A16B26D021F48031A16311
:1029F000C5F30741012907D1A16841F00601A16093
:102A0000A16841F02001A16070BDA16B21F480316B
:102A1000A163E1680A4A1140E160E16821F44011D4
:102A2000E160C0B2012803D1E06840F48010E060AA
:102A3000204600F007F8DBE741F48031D7E70000DB
:102A4000BFFFBDFF08B5002100914FF07061009AF3
:102A5000521C00928A4210D80269002AF7DA0A2230
:102A60000092521E0092FCD1026942F00102026102
:102A7000009A521C00928A4201D9032008BD0269C3
:102A8000D207F5D1002008BD30B54C780A78012373
:102A900000EB4212012C2CD0D2F8004B002C0BDAA8
:102AA000D2F8004B44F00064C2F8004BD2F8004B5F
:102AB00044F08044C2F8004BD0F83C580C7804F045
:102AC0000F0403FA04F425EA0444C0F83C48D0F8A3
:102AD0001C48097801F00F018B4024EA0341C0F83B
:102AE0001C18D2F8000B19490840C2F8000B00204E
:102AF00030BDD2F80049002C0BDAD2F8004944F07E
:102B00000064C2F80049D2F8004944F08044C2F899
:102B10000049D0F83C480D7805F00F0503FA05F59B
:102B2000ADB2AC43C0F83C48D0F81C48097801F07D
:102B30000F018B4099B28C43C0F81C48D2F80009B1
:102B400003490840C2F80009D1E700000078F3EF1C
:102B5000007833ECD0F8001E21F00301C0F8001E0D
:102B6000D0F8041821F00201C0F8041800207047C2
:102B7000D0F8001E21F00301C0F8001ED0F80418A0
:102B800041F00201C0F80418002070472DE9F04F11
:102B900000250E46044617462846294604EB8002C7
:102BA000C2F80411401C0F28F8D3C3F307405FEAB2
:102BB0000009204616D0806B20F40012A263A06B9F
:102BC00040F40022A263084688462146C4F8000E5D
:102BD000C7F30720012817D00846D1F8001841F0A4
:102BE000030118E0D0F8040840F00202C4F80428F9
:102BF000A06B40F40012A263A06B20F40022A26339
:102C0000A06B20F48022DDE7300E0846D1F80018D2
:102C100001D041F00101C0F80018102100F08BFA3A
:102C200000B10125204600F06AFA00B101254046B6
:102C3000C4F81088C4F81488C4F81C8800214FF028
:102C4000006B4FF0904E4FF67F3AF2B215E000BFA6
:102C500004EB4113D3F800C9BCF1000F06DA11B13F
:102C6000C3F800E904E0C4F800B901E0C3F80009C2
:102C7000C3F81009C3F808A9491C8A42E8D8002102
:102C800015E000BF04EB4113D3F800CBBCF1000FFB
:102C900006DA11B1C3F800EB04E0C4F800BB01E0B0
:102CA000C3F8000BC3F8100BC3F808AB491C8A42E9
:102CB000E8D8D4F8101821F48072C4F81028A06164
:102CC0006FF080406061C6F3074018B9A06940F01A
:102CD0001000A061A0690A490843A061C7F307403A
:102CE00018B1A06940F00800A061B9F1010F03D14B
:102CF000A06904490843A0612846BDE8F08F0000A0
:102D000000383C8004000040816821F001018160AE
:102D10000020704710B5036C134CA34203D9D0F8C0
:102D2000003B002B1EDB0023C0F8103BD0F8103B0B
:102D300043F40023C0F8103BD0F8103B43F01803D5
:102D4000C0F8103BD0F8103B43F0C043C0F8103B34
:102D5000012907D1C0F8142BD0F8001B41F08021C5
:102D6000C0F8001B002010BD0A30544F4A780B7881
:102D7000012A00EB43100BD0D0F8002B22F40012F4
:102D8000C0F8002B0979032914D0022912D017E0CA
:102D9000D0F8002922F40012C0F80029097903298B
:102DA00001D002290CD1D0F8001941F08051C0F8AF
:102DB000001905E0D0F8001B41F08051C0F8001B5D
:102DC000002070470A784B78D1B200EB4110012BFC
:102DD00012D0D0F8001B002906DB2AB1D0F8001B66
:102DE00021F08041C0F8001BD0F8001B41F4001115
:102DF000C0F8001B00207047D0F80019002906DB3E
:102E00002AB1D0F8001921F08041C0F80019D0F89B
:102E1000001941F40011C0F80019EBE7F8B50C787F
:102E20004F788B4DE3B26FF0604600EB4313012FF8
:102E300029D0D3F8107B6FF31207C3F8107BD3F8B7
:102E4000107B2F40C3F8107B002C7DD00D69002D26
:102E50007BD08C6825446D1EB5FBF4F5ADB26C4398
:102E60000C62D3F8104B06EAC5452C43C3F8104B4F
:102E7000D3F8104B0D6AC5F312052C43C3F8104B61
:102E8000012A70D0CBE00F69EFB1D3F810796FF35E
:102E90001207C3F81079D3F810792F40C3F81079CE
:102EA0000CB30F698D682F447F1EB7FBF5F5D3F87F
:102EB0001079ADB206EAC5463743C3F810790E79EA
:102EC000012E1CD02AE0D3F810692E40C3F81069F7
:102ED000D3F8105945F40025C3F81059D3F8105908
:102EE0006FF3120520E00E698D68AE4200D90D61C6
:102EF000D0F8105945F40026C0F810690EE0D3F858
:102F0000106926F0C046C3F81069D3F810694FF075
:102F1000C04707EA45752E43C3F81069D3F8105926
:102F20000E69C6F312063543C3F81059012A1BD0A7
:102F300000EB4413D3F8004944F00444C3F80049BB
:102F40000C79012C31D001E044E057E00A695AB312
:102F5000D0F83428097801F00F03012199400A4381
:102F6000C0F8342871E056E0CA691AB100EB441386
:102F7000C3F81429097901290ED1D0F80818C90518
:102F800000EB4411D1F8002902D442F0005201E0D4
:102F900042F08052C1F8002900EB4410D0F800192B
:102FA00041F00441C0F800194FE0D0F80848E405AA
:102FB000D3F8004902D444F0005401E044F08054B6
:102FC000C3F8004900920A8A93B20A78C96800F0EF
:102FD000DFF93AE00C690CB18C680C618C680C620A
:102FE000D0F8105BC4F312042543C0F8105BD0F88E
:102FF000104B44F40024C0F8104B41E7D3F8104BB9
:103000008D68C5F312052C43C3F8104BD3F8104B51
:1030100044F4002432E7CA680AB1C3F8142B0979D2
:1030200001290CD1D0F80808C005D3F8000B02D450
:1030300040F0005001E040F08050C3F8000BD3F89E
:10304000000B40F00440C3F8000B0020F8BD000066
:10305000FFFF07E038B50022009213464D780A784A
:1030600042F2107400EB4212012D19D0D2F8005B2D
:10307000002D3CDAD2F8005B45F00065C2F8005B39
:103080000A7800EB4212D2F8005B45F08045C2F8A6
:10309000005B009A521C0092A24221D9012326E033
:1030A000D2F80059002D22DAD2F8005945F0006517
:1030B000C2F800590A7800EB4212D2F8005945F0E4
:1030C0008045C2F80059009A521C0092A242E5D8ED
:1030D0000A7800EB4212D2F80029002AF3DB06E05E
:1030E0000A7800EB4212D2F8002B002AD1DB1846F6
:1030F00038BD816841F0010181600020704708B54A
:1031000000214FF070620091009B5B1C0093934282
:103110000AD80369002BF7DA0091102101610099A8
:10312000491C0091914201D9032008BD0169C906DB
:10313000F5D4002008BD18B500224FF0706300924E
:10314000009C641C00949C420CD80469002CF7DAA3
:103150000092202242EA811101610099491C0091EC
:10316000994201D9032018BD01698906F5D40020D0
:1031700018BDD0F8080810F0060004D0022803D0CB
:10318000062801D00F20704702207047406900F0E8
:1031900001007047D0F81818D0F81C08084080B219
:1031A0007047D0F81818D0F81C080840000C704779
:1031B00010B5D0F81038D0F8342801F00F0400EB27
:1031C0004110E24002F00102D0F8080943EAC212BD
:1031D000104010BD00EB4111D1F8081BD0F81408C5
:1031E00008407047416980690840704730B5034620
:1031F0000846940802F00301002203F5805303E01F
:103200001D6840F8045B521CA242F9D300290BD080
:103210001C680022D50024FA05F3491E521C09043B
:1032200000F8013B090CF5D130BD70B50446C0680B
:10323000002520F0C040E060012901D079B120E0F4
:10324000E06840F00050E0600A20FDF7FDF860699A
:103250000A3510F0010F10D1C82DF5D30DE0E0684C
:1032600040F08040E0600A20FDF7EEF860690A3522
:1032700010F0010F01D0C82DF5D3C82D01D00020CA
:1032800070BD012070BDD0F8002822F4FE62C0F8A5
:103290000028D0F800284FF4FE6303EA01110A4326
:1032A000C0F8002800207047022A3ED1264A274B4A
:1032B0000A449A4201D20F2138E0254A254B0A449C
:1032C0009A4201D20E2131E0234A244B0A449A4209
:1032D00001D20D212AE0224A224B0A449A4201D20D
:1032E0000C2123E0204A214B0A449A4201D20B21AF
:1032F0001CE01F4A1F4B0A449A4201D20A2115E0E2
:103300001D4A1E4B0A449A420FD31D4A1D4B0A44C4
:103310009A4201D2082109E01B4A11441B4A9142FA
:1033200001D2072102E0062100E00921C26822F44F
:103330007052C260C2684FF4705303EA81210A439D
:10334000C260002070470000405327FF00350C008A
:10335000401E1BFF40420F0000DC0BFF804F12009D
:10336000808CF9FE20D6130060B6E5FE60E31600FF
:1033700000D3CEFE40771B00C05BB3FEC09121009E
:1033800000CA91FE20753800E05459FEE09C4100CF
:1033900010B5029C74B9DB1C9C0800EB02300023C2
:1033A00000F5805004E000BF51F8042B02605B1C64
:1033B000A342F9D3002010BDFEE70907090E00283B
:1033C00004DB00F1E02080F80014704700F00F00EB
:1033D00000F1E02080F8141D7047FDF74DF9FEF76D
:1033E000AFFAFEF7A5F9FEF7B9F9FEE74FF0407026
:1033F000E1EE100A7047000000000000000001022A
:103400000304060708090000283400080000002013
:103410001C010000C4010008443500081C01002004
:103420003C100000E0010008591E0008911E000831
:103430009D1E0008C51E0008F91E0008311E000868
:10344000651E000804030904120100020000004088
:103450008304505700020102030100001A03000018
:10346000000000000000000000000000000000005C
:10347000000000000000000005010904A101050290
:1034800009C81581257F7508950181020509190173
:10349000291015002501750195108102C00000005A
:1034A0005000002025040008210400082904000819
:1034B0000100000010000000000000000024F400E3
:1034C00000000000711B0008191A0008751C000894
:1034D00000000000991A0008E1190008F519000819
:1034E000000000000000000000000000091B0008B0
:1034F000D51A00083D1B0008C91A00088101000008
:1035000009022900010100C0320904000002030081
:103510000000092111010001222500070581030295
:103520000005070501030200050000000921110143
:1035300000012225000000000A06000200000040F1
:043540000100000086
:040000050800018965
:00000001FF
