:020000040800F2
:10000000401400209D010008A71A00086919000883
:10001000A51A00080703000859390008000000006D
:10002000000000000000000000000000251C000887
:10003000C504000800000000231C0008311C000853
:10004000B7010008B7010008B7010008B7010008B0
:10005000B7010008B7010008B7010008B7010008A0
:10006000B7010008B7010008B7010008B701000890
:10007000B7010008B7010008B7010008B701000880
:10008000B7010008B7010008B7010008B701000870
:10009000B7010008B7010008B7010008B701000860
:1000A000B7010008B7010008B7010008B701000850
:1000B000B7010008B7010008B7010008B701000840
:1000C000B7010008B7010008B7010008B701000830
:1000D000B7010008B7010008B7010008B701000820
:1000E000B7010008B7010008B7010008B701000810
:1000F000B7010008B7010008B7010008B701000800
:10010000B7010008B7010008B7010008B7010008EF
:10011000B7010008B7010008B7010008B7010008DF
:10012000B7010008B7010008B7010008B7010008CF
:10013000B7010008B7010008B7010008B7010008BF
:10014000B7010008B7010008B7010008A91A0008A4
:10015000B7010008B7010008B7010008B70100089F
:10016000B7010008B7010008B7010008B70100088F
:10017000B7010008B7010008B7010008000000003F
:10018000B7010008B7010008DFF80CD000F07AF8DA
:1001900000480047393E00084014002006488047C8
:1001A00006480047FEE7FEE7FEE7FEE7FEE7FEE75C
:1001B000FEE7FEE7FEE7FEE7C51C00088901000830
:1001C0002DE9F05F0546002092469B46884606468C
:1001D000814640241BE0284641464746224600F01F
:1001E00041F853465A46C01A914110D31146184659
:1001F000224600F028F82D1A67EB01084F462246E8
:100200000120002100F01FF817EB00094E41201ECD
:10021000A4F10104DFDC484631462A464346BDE8E6
:10022000F09FD2B201E000F8012B491EFBD27047CB
:100230000022F6E710B513460A4604461946FFF7B2
:10024000F0FF204610BD202A04DB203A00FA02F11C
:10025000002070479140C2F1200320FA03F31943B4
:1002600090407047202A04DB203A21FA02F0002156
:10027000704721FA02F3D040C2F1200291400843B6
:1002800019467047064C074D06E0E06840F0010350
:1002900094E8070098471034AC42F6D3FFF778FF94
:1002A000BC3E0008DC3E000870B58D1810F8014B0C
:1002B00014F0030201D110F8012B231106D110F81C
:1002C000013B03E010F8016B01F8016B521EF9D1FC
:1002D000ABB110F8012B04F00C048A1A0C2C03D0DB
:1002E000A2EB84129B1C08E010F8014BA2EB042245
:1002F000F8E712F8014B01F8014B5B1EF9D5A94252
:10030000D4D3002070BDFEE70020704770B50D46C5
:100310000446014608A003F021FB132C03D0122C45
:1003200005D0002070BD06202880094870BD04203B
:1003300028800748001F70BD4765745265706F7252
:10034000742069643D3078253032580D0A00000071
:10035000630000200020704710B52348D0F8BC028D
:100360000178122934D2DFE801F0331A331E202439
:1003700033333333262C2F3B333333091B4C0122C9
:10038000601C2178417082702822C27018A003F08E
:10039000E5FA207828281BD2401C207018E08278CB
:1003A00041781DA00AE024A000E027A003F0D6FABF
:1003B0000EE029A0FAE7827841782BA003F0CEFA6C
:1003C00006E041782FA001E0417834A003F0C6FA9E
:1003D000054801F091FE002801D04FF0FF3010BD1C
:1003E000417833A0F2E70000540600205E000020B0
:1003F000437265617465204E657720456666656366
:10040000742C2061737369676E656420626C6F631E
:100410006B3D25640D0A00005365742045666665D2
:10042000637420626C6F636B3D2564207479706522
:100430003D25640D0A00000053657420436F6E640F
:100440006974696F6E0D0A00536574205065726996
:100450006F6469630D0A000053657420436F6E7307
:1004600074616E740D0A0000456666656374204F02
:100470007020626C6F636B3D2564206F703D256456
:100480000D0A0000426C6F636B2046726565206246
:100490006C6F636B3D25640D0A000000446576694E
:1004A000636520436F6E74726F6C2025640D0A00C3
:1004B000446576696365204761696E2025640D0A8D
:1004C00000000000704772B6FEE7000070B50446F9
:1004D00000F006F90546601C02D004480078044488
:1004E00000F0FEF8401BA042FAD370BD2C0500209E
:1004F0002DE9F84FDFF8BCA10022012503264FF0BB
:100500000F090AF1040BAAF1040E00BF0B6805FAEB
:1005100002F42340A34270D10F7907F00307012FA3
:1005200001D0022F16D187684FEA420806FA08FC6C
:1005300027EA0C07D1F80CC00CFA08FC4CEA070CAF
:10054000C0F808C04768A7430C79C4F3001494406E
:100550003C4344600C79E443A4070AD0C4684FEAE2
:10056000420C06FA0CF7BC438F6807FA0CF72743D6
:10057000C7600C7904F00304022C12D1D40800EBFC
:10058000840CDCF820405707FF0E09FA07F824EA2C
:100590000804D1F8108008FA07F848EA0408CCF8F3
:1005A000208004684FEA420C06FA0CF7BC430F792E
:1005B00007F0030707FA0CF7274307604C6814F4A9
:1005C000403F70D03C4C276847F480472760246840
:1005D00022F0030704F480440094384C07EB040C29
:1005E000DCF8084897074FEA177809FA08F7BC4380
:1005F000334FB84202D1002724E054E0314FB842D3
:1006000001D101271EE0304FB84201D1022719E085
:100610002E4FB84201D1032714E02D4FB84201D12B
:1006200004270FE02B4FB84201D105270AE02A4FDB
:10063000B84201D1062705E0284FB84201D107276B
:1006400000E0082707FA08F72743CCF80878DAF81B
:1006500000405746D1F804C09C435FEACC2C00D53B
:100660001C433C60DBF800405F46D1F804C09C436B
:100670005FEA8C2C00D51C433C60DEF800407746D6
:10068000D1F804C09C435FEA8C3C00D51C433C601D
:10069000084F083F3C68D1F804C09C435FEACC3C5B
:1006A00000D51C433C60521C102AFFF42FAFBDE85C
:1006B000F88F0000083C01404438024000300140FF
:1006C000000002400004024000080240000C02400A
:1006D000001002400014024000180240001C0240BA
:1006E00001488068704700002C050020024881689E
:1006F00002781144816070472C0500200B4810B52A
:10070000016841F400710160016841F48061016099
:10071000016841F480710160032000F06FF80F2040
:1007200000F006F800F024F8002010BD003C024064
:1007300070B50D4D04464FF47A712878B1FBF0F096
:100740000A490968B1FBF0F001F022F848B9102C11
:1007500007D200222146501E00F030F800206C60C5
:1007600070BD012070BD00002C0500203805002060
:100770000A4808B5016841F480410160006800F44E
:10078000804000900548001F016841F080510160E1
:10079000006800F08050009008BD0000443802401E
:1007A000002809DB00F01F02012191404009800070
:1007B00000F1E020C0F8001170470000F0B40E4BCB
:1007C0001B680C46C3F30223C3F10705042D00D9AF
:1007D0000425191D072901D2002300E0DB1E012694
:1007E00006FA05F1491E214099409E40761E1640AA
:1007F0003143F0BC03F0C2B80CED00E0064900F054
:10080000070208684FF6FF03184040EA0220034A37
:1008100010430860704700000CED00E00000FA058E
:1008200070470068416200207047F0B50368586A5D
:1008300039B19C6A4FF4827600EB144400204D1EBF
:100840000AE040EA024098620FE006EB8007DF59B9
:10085000401C04EB1744C0B2A842F6D344EA02405D
:100860004FF4807202EB810158500020F0BDD0F8A7
:10087000E00401F0CCBF01EBC10200EB8202D0F832
:10088000E004126A01F01DBF01EBC10200EB82021D
:10089000D0F8E004D2F8602201F06FBFD0F8E00495
:1008A00001F0B7BF0A0601F00F0101EBC10100EB37
:1008B000810101D5143101E001F51571006802F0E4
:1008C00099BE70B504460B0601F00F0000EBC001A5
:1008D00004EB81014FF001024FF0000502D54A758B
:1008E000143103E081F8555201F51571087094F840
:1008F0009404012808D084F89424206802F094FB22
:1009000084F89454002070BD022070BD70B5044678
:1009100001F00F002279904201D9012070BD0B0631
:1009200001F00F0101EBC10104EB81014FF0010265
:100930004FF0000502D54A75143103E081F8555295
:1009400001F515718D70087094F89404012808D091
:1009500084F89424206802F0D9FC84F89454002090
:1009600070BD022070BD2DE9F04104460F0601F074
:100970000F0000EBC00104EB81014FF001064FF0C6
:10098000000502D54E75143103E081F8555201F58A
:100990001571C2F30A0208708A600B714A7802B1BD
:1009A0004883022B00D14D7194F89404012809D09A
:1009B00084F89464206802F085FA284684F89454F8
:1009C000BDE8F0810220FBE710B501F00F0404EB55
:1009D000C40100EB8101C1E998230023C1F868320A
:1009E00081F8553281F85442837901F51571012B54
:1009F00000D1CA618279006802F0E0FC002010BDDD
:100A000070B504460D4601F00F002179884201D9E6
:100A1000012070BD29064FF000064FF0010206D5F7
:100A200000EBC00104EB81014A75143107E005EBCE
:100A3000C50104EB810181F8556201F515718A70D9
:100A4000087094F89404012807D084F8942420684E
:100A500002F088FC280702D007E0022070BDA179CF
:100A600004F29C42206802F025FC84F89464002083
:100A700070BD10B501F00F0404EBC40100EB81015F
:100A8000C1E9082300238B6201234B7501F8144F41
:100A90008379012B00D1CA618279006802F08EFC53
:100AA000002010BD2DE9FC5F05680446284602F0D1
:100AB0003DFE00287DD1206802F064FE002878D039
:100AC000D5F80808C0F30D20C4F8D404206802F05B
:100AD00059FE800704D52068416901F00201416197
:100AE000206802F04FFEC10604F29C40009034D50D
:100AF0002068816921F0100181612F6A07F00F00E1
:100B000000EBC00004EB8006C7F3434006F5157602
:100B1000022802D0062811D01AE047F6F0700742EA
:100B200016D0C7F30A1217462846F16802F02EFEC7
:100B3000F0683844F0607069384408E008222846BC
:100B4000009902F023FE7069C7F30A11084470612E
:100B50002068816941F010018161206802F012FE75
:100B600000034FF0080B4FF0000A4FF001097CD54D
:100B70000026206802F0E5FD074674E0F80770D013
:100B8000F1B2206802F0F6FD8046C00707D005EB01
:100B90004611C1F8089B3146204600F08BFF5FEA02
:100BA000087024D505EB4611C1F808BB2068016C1C
:100BB00000E023E200EB46100191D0F8082BFB4B3C
:100BC000994205D9110403D54FF40041C0F8081B20
:100BD000204600F0F6FAF5490198884207D9A07935
:100BE000012804D120680121009A02F063FB5FEA2A
:100BF000C86004D505EB46111020C1F8080B5FEA68
:100C000088701DD56869000605D5D5F8040840F43C
:100C10008061C5F8041806EBC60004EB800090F86C
:100C2000571200F51570012905D180F803A0F1B223
:100C3000204600F0E9F905EB46110220C1F8080B47
:100C40005FEA886004D505EB46102021C0F8081B38
:100C50005FEA884005D505EB46104FF40051C0F817
:100C6000081B7F08761C002F88D1206802F08AFDBF
:100C700040036ED5206802F05DFD0746002666E061
:100C8000F80762D0F1B2206802F062FD8046C0072A
:100C900023D006F00F01D5F8342809FA01F18A4370
:100CA000C5F8342805EB4611C1F80899A079012848
:100CB0000FD106EBC60004EB8000D0E907211144F8
:100CC000016236B9606A20B920680121009A02F0F9
:100CD000F1FAF1B22046FFF7CEFD5FEA087003D5C6
:100CE00005EB4611C1F808B95FEAC86004D505EB09
:100CF00046111020C1F808095FEA486004D505EBE9
:100D000046104021C0F808195FEA887016D53146B0
:100D1000284602F0E0FC06EBC60004EB8000C17D33
:100D20001430012905D180F803A0F1B2204600F06B
:100D300067F905EB46110220C1F808095FEA08606F
:100D400003D53146204600F01BFF7F08761C002F9C
:100D500096D1206802F016FD002811DAD5F80408B3
:100D600020F00101C5F8041894F8CC0401282BD018
:100D7000204600F00BFA2068416901F00041416112
:100D8000206802F0FFFC00050BD5D5F80808C00765
:100D900002D0204600F03EFA2068416901F400616B
:100DA0004161206802F0EEFCC00467D5D5F8040864
:100DB00020F00100C5F804081021206802F08BFC27
:100DC00000214FF67F3220E084F8CCA40021204699
:100DD000FFF726FDCFE700BF05EB4110C0F808295B
:100DE000D0F8003923F40013C0F80039C0F8082BFC
:100DF000D0F8003B23F40013C0F8003BD0F8003BD0
:100E000043F00063C0F8003B491C20798842E3D8D6
:100E1000D5F81C0840F00111C5F81C18E07B00282B
:100E200028460DD0D0F8840840F00B01C5F884188E
:100E3000D5F8440840F00B012846C5F844180DE0E9
:100E4000D0F8140842F22B010843C5F81408D5F86D
:100E5000100840F00B012846C5F81018D0F800081B
:100E600020F4FE61C5F80018A1792068009A02F00C
:100E700021FA2068416901F480514161206802F043
:100E800081FC800415D5206802F05CF8206802F02F
:100E900040FCE07100F070FA0146E279206802F04F
:100EA000D3FC204600F05CF92068416901F4005150
:100EB0004161206802F066FC000707D5204600F07B
:100EC00069F92068416901F008014161206802F078
:100ED00059FC000616D5A86920F08001A9610126F9
:100EE0000DE000BF06EBC60004EB800090F857024F
:100EF000012803D1F1B22046FFF7D4FC761C2079FB
:100F0000B042EFD8206802F03DFCC0021FD5012698
:100F10004F4614E005EB4610D0F8000906EBC60179
:100F200004EB81010A7E012A08D1002806DACF7578
:100F3000F0B240F080012046FFF7B4FC761C207927
:100F4000B042E7D82068416901F48011416120680E
:100F500002F018FC800234D501204A4629E000BF87
:100F600005EB4011D1F8001B00EBC00304EB830339
:100F700093F85862012E1BD1002919DA94F8D46431
:100F8000C1F3004106F001068E4211D183F85722C9
:100F9000A96941F08003AB616969090608D4D5F8F5
:100FA000040840F40070C5F8040805E00A30544F06
:100FB000401C21798142D3D82068416901F4001195
:100FC0004161206802F0DEFB400007D52046FFF7B4
:100FD0004EFC2068416901F080414161206802F0C7
:100FE000D1FB40070AD520684568680702D520462E
:100FF000FFF754FC2068416829434160BDE8FC9F2D
:10100000D0F8E00401F053BCD0F8E00401F063BC78
:10101000F8B5040005D094F895042668002510B1B1
:1010200006E00120F8BD84F89454204600F056F8FC
:10103000032084F89504B6F1A04F00D1A571206873
:1010400002F032F9207C8DF8000094E80F0001F0E6
:1010500087FF0226B8BB0021206802F0B6FB90BBD8
:10106000002001270DE000BF00EBC00104EB81016F
:101070004F750875C8850D76CD610D62401CC0B2F4
:101080004D6221798142EFD8002011E000EBC001D0
:1010900004EB810181F8555281F8540281F85852CD
:1010A000C1F85C52C1F86052401CC0B2C1F8645231
:1010B00021798142EAD8207C8DF8000094E80F0065
:1010C00002F034F810B184F89564AAE7657484F8E6
:1010D0009574206802F01CF80020F8BD10B586B0A9
:1010E000044614216846FFF7A3F82068B0F1A04F2A
:1010F0002FD119480021026842F001020260006805
:1011000000F0010005904FF4C05000900220CDE99E
:101110000101032003900A20049069460F48FFF75D
:10112000E7F90D48001D016841F0800101600A489F
:101130001430016841F4804101600068002200F42D
:101140008040059011464320FFF738FB4320FFF70E
:1011500027FB06B010BD00003038024000000240FE
:1011600070B50446C079012570B1022801D0FFF79F
:10117000AAF92946D4F8E00401F01CFCD4F8E004F4
:10118000BDE8704001F0D0BB0025F2E7D0F8E004E4
:1011900001F0F9BBD0F8E00401F0FFBB10B5044644
:1011A00090F8940401280AD0012084F89404617412
:1011B000206802F038FB002084F8940410BD02205F
:1011C00010BDD0F8E02400F29C41104601F0FEBBB7
:1011D00010B50446006894F89414012909D001213F
:1011E00084F89414C168490609D5617B012902D0AD
:1011F00005E0022010BD816B41F4803181632068DD
:1012000002F047FA206801F075FF002084F894048A
:1012100010BD000010B50446D0F8E00401F018FC41
:101220002068D0F8001E41F00101C0F8001EE07AED
:10123000002804D00248016841F00601016010BD99
:1012400010ED00E02DE9F0470E46050065D0DFF80F
:101250001481D8F80000F7B200F00700B04207D2BE
:1012600088F80070D8F8000000F00700B04254D1B0
:1012700028683D4C810712D5400703D5206840F40B
:10128000E05020602878000703D5206840F46040D3
:1012900020602068A96820F0F000084320602878CA
:1012A000C0072DD0304968680839012812D00228BB
:1012B00013D0032811D00968890700292DDA216885
:1012C00021F0030101432160FFF70AFA814641F250
:1012D000883A0EE009688903EFE709688901ECE7BD
:1012E000FFF7FEF9A0EB0901514502D90320BDE843
:1012F000F0872068696800F00C00B0EB810FEFD137
:10130000D8F80010404601F00701B14207D9077034
:10131000006800F00700B04201D00120E7E728781C
:10132000400705D52068E96820F4E05008432060B4
:101330002878000706D52068296920F4604040EA33
:10134000C100206000F03EF82168084AC1F3031193
:10135000515CC8400649086006480068FFF7E8F994
:101360000020C4E7003C024008380240A43E0008C8
:101370003805002030050020014800687047000053
:10138000380500200448054900680968044AC1F38B
:101390008221515CC840704738050020083802405F
:1013A000B43E00080448054900680968044AC1F3CE
:1013B0004231515CC840704738050020083802406F
:1013C000B43E0008154810B5006810F00C0214482F
:1013D00013D04110042A0FD0082A0ED10F4C241F1D
:1013E0002268236802F03F025B0207D52068C0F341
:1013F0008810A0FB010106E0084610BD2168C1F37A
:101400008811A1FB00010023FEF7DAFE2168C1F379
:101410000141491C4900B0FBF1F010BD0838024001
:101420000024F4002DE9F84F04006ED02078DFF896
:101430004C93C007A9F104054AD009F104000168E2
:10144000C1F38101012908D00068C0F3810002289E
:101450000AD1D9F80000400206D52868800337D5A4
:1014600060680028E1D033E06068B0F5803F10D0BC
:10147000B0F5A02F286810D020F4803028602868AC
:1014800020F4802028606068A8B1FFF729F906469B
:101490000DE0286840F48030F4E740F480202860B4
:1014A000F7E700BFFFF71CF9801B642873D8286892
:1014B0008003F7D50CE0FFF713F9064605E000BFFF
:1014C000FFF70EF9801B6428F0D828688003F7D452
:1014D0002078DFF8AC8280074FF0000A3ED5A7489D
:1014E000001D016811F00C0F08D00068C0F38100E6
:1014F00002280BD1D9F80000400207D428688007E1
:1015000016D5E068012800D112E033E1E068B8B1F7
:101510000120C8F80000FFF7E3F8064605E000BF29
:10152000FFF7DEF8801B0228C0D828688007F7D5AF
:101530002868216920F0F80040EAC10028600DE029
:10154000C8F800A0FFF7CCF8064604E0FFF7C8F89B
:10155000801B02281FD828688007F7D4207800074E
:1015600022D5864F87486169703771B101210160CA
:10157000FFF7B6F8064604E0FFF7B2F8801B022832
:1015800009D838688007F7D50EE0C0F800A0FFF74B
:10159000A7F8064605E082E0FFF7A2F8801B0228C4
:1015A0007DD838688007F7D42078400768D5DFF801
:1015B000CCB100270BF13C0BDBF80000C0000BD4D2
:1015C000DBF8001041F08051CBF80010DBF8000090
:1015D000012700F0805000906B4E3068C00510D499
:1015E000306840F480703060FFF77AF8009005E0D2
:1015F000FFF776F80099401A022850D83068C005E5
:10160000F6D55E4EA0686C3601280FD005283068EC
:1016100010D020F001003060306820F0040030600D
:10162000A068B8B1FFF75CF800900FE0306840F0B8
:101630000100F4E740F004003060F7E7FFF750F8EE
:101640000099411A41F28830814266D8306880079B
:10165000F4D50EE0FFF744F8009007E0FFF740F8FC
:101660000099411A41F28830814256D8306880078B
:10167000F4D42FB1DBF8001021F08051CBF800102A
:10168000A069C8B33D49091D0968C1F38101022958
:101690004AD00228504607D0C8F8600000E03CE07D
:1016A000FFF71EF804463BE04746C8F86000FFF726
:1016B00017F8064605E000BFFFF712F8801B022866
:1016C0002BD828688001F7D4D4E907010843A16A20
:1016D0002E4A490802EB0141626A41EA821108433D
:1016E00094F82C1040EA0161C9F800100120386616
:1016F000FEF7F6FF044606E03EE000BFFEF7F0FF0F
:10170000001B022809D828688001F7D534E000BF03
:10171000FEF7E6FF001B022802D90320BDE8F88F80
:1017200028688001F4D427E00128F7D0D9F8000018
:10173000E26900F4800191421CD1226A00F03F016D
:10174000914217D147F6C071626A0140B1EB821F26
:1017500010D1A26A4FF0FF3300F4403103EB520284
:10176000B1EB024F06D194F82C1000F07060B0EB92
:10177000016F01D00120D1E70020CFE704380240FB
:1017800000004742800E4742007000400000FFFF0B
:1017900010B5401EB0F1807F01D3012010BD4FF085
:1017A000E02460610F21601702F0E8F80020A061DA
:1017B00007202061002010BD70B5040004D094F80B
:1017C0004100002510B106E0012070BD84F84050B2
:1017D000204600F023F8242084F841002068C168E6
:1017E00021F40051C160204600F09CFA2068016994
:1017F00021F4904101612068416921F02A01416191
:101800002068C16841F40051C1606564202084F8FB
:10181000410084F842006563002070BD70B586B059
:10182000044614216846FEF703FD2348214E25682F
:1018300000232149103803220224B54218D10D6833
:1018400045F400250D60096801F400210591016847
:1018500041F0010101600068029300F00100059071
:10186000CDE900240820CDE90320694613481CE097
:10187000134EB5421BD10D6845F480250D600968F3
:1018800001F480210591016841F0020101600068C6
:10189000029300F0020005904FF44060CDE900048F
:1018A0000720CDE9032069460648FEF721FE06B071
:1018B00070BD0000004C0040403802400000024073
:1018C00000480040000402402DE9F843044690F827
:1018D0004100984616460D46202802D00220BDE859
:1018E000F88385B17EB100206064212084F8410036
:1018F000FEF7F6FEA6848146E684A0682027B0F5B0
:10190000805F02D003E00120E9E7206910B12E4694
:1019100000250EE000260CE08021204600F088FA29
:10192000A8B9C6B116F8010B21684860E08C401ECA
:10193000E084E08C4B464FF00002CDF80080002898
:10194000EAD14FF04001204600F072FA40B184F82D
:1019500041700320C3E735F8020BC0F30800E3E74A
:1019600084F841700020BAE7FEE70000F0B50023DC
:101970000A24302537261F4611E000BFB4EB107F44
:1019800002D905EB107C01E006EB107C01F813C0D6
:1019900001EB430C00015B1C8CF80170DBB293423D
:1019A000ECD3F0BD0D4808B5016841F0800101603D
:1019B000016801F080010091016841F001010160BE
:1019C000016801F001010091016841F0020101602C
:1019D000006800F00200009008BD000030380240AE
:1019E0000C4810B50A4901604FF4E1314160002113
:1019F00081600C22C160C0E904128161C161FFF7FE
:101A0000DBFE002803D0BDE81040FEF75CBD10BD32
:101A1000004C0040C40500200C4810B50A49016084
:101A20004FF4E1314160002181600C22C160C0E9C6
:101A300004128161C161FFF7BFFE002803D0BDE839
:101A40001040FEF740BD10BD004800400C060020CD
:101A500010B500220F49104800F00EFE08B1FEF745
:101A600032FD0E490C4801F01FF808B1FEF72BFDBE
:101A70000B49094800F054FB08B1FEF724FD064865
:101A800001F096F8002803D0BDE81040FEF71BBD1A
:101A900010BD00001000002054060020400500206A
:101AA00018050020FEE7FEE70148FEF7FBBF000037
:101AB000580B00202DE9F04103680D4604461E6CCA
:101AC00003EB4511D1F8080B94F806E04FF40047FA
:101AD0004FF0200C04F29C42BEF1010F09D0DFF858
:101AE00098E0764539D1020432D500BFC1F8087BB1
:101AF0003FE0224B5FEA007E04D59E4239D90004C4
:101B0000F4D436E05FEA806E02D5C1F808CB30E04D
:101B100010F0280F2DD19E4201D90004E6D405EB28
:101B2000C50004EB8000D1F8101BD0F87432C1F36B
:101B30001201591AC0F8681200F51570ADB90369A1
:101B40001BB1C2681144C1600FE0012120680AE0A6
:101B500080060AD5C1F808CB07E035B9D4F864028D
:101B600018B90021184601F0A5FBE9B22046FEF79E
:101B70008BFE0020BDE8F0810A31544F0A30544FEB
:101B80002DE9F84F0E4601EBC60100EB81048146BA
:101B90000568D4E909101434884202D90120BDE84F
:101BA000F88F081AA168814200D20846C01C870835
:101BB00005EB46181BE000BFA0EB010AA0685045EA
:101BC00000D282460AF10300870899F806000090C7
:101BD0001FFA8AF3F2B22846E16801F0A9FEE16833
:101BE00001EB0A00E060616901EB0A006061D8F86E
:101BF000180980B2B84205D3D4E90401814201D268
:101C00000028D9D1D4E90401884208D806F00F0190
:101C100001208840D5F834188143C5F834180020D5
:101C2000BDE7704770470178407841EA002070476F
:101C3000FEF75CBD30B593B030216846FEF7F8FA88
:101C400014210CA8FEF7F4FA1C480025016841F0A5
:101C500080510160006800F08050119018480168C0
:101C600041F4804101600068022400F4804011903A
:101C700001200090000401908001CDE9064004207D
:101C800008904820CDE9090403200B906846FFF72F
:101C9000C9FB08B172B6FEE70CA90F2081E831003C
:101CA0004FF48050CDE90F0502210CA8FFF7CAFAC6
:101CB000002801D072B6FEE713B030BD40380240B4
:101CC000007000400248016841F4700101607047F3
:101CD00088ED00E001680C3151E8002F22F4907289
:101CE00041E80023002BF5D10168143151E8002FA1
:101CF00022F0010241E80023002BF5D1016B0129FC
:101D000009D101680C3151E8002F22F0100241E89E
:101D10000023002BF5D1202180F84210002101631F
:101D20007047000070B5044600680169E26821F45C
:101D30004051114301612169A068E269084361696A
:101D4000114308432168CA6849F20C639A4302436D
:101D5000CA6020684169A26921F440711143416160
:101D600031492068884202D03049884202D1FFF7C9
:101D700019FB01E0FFF706FBE26900231921642546
:101D80003226B2F5004F626828D0A0FB0101930F04
:101D90009200FEF715FA0146B0FBF5F06FF018025D
:101DA000504301EB800006EB0010B0FBF5F000F0B3
:101DB000F002B1FBF5F002EB0012B1FBF5F06FF0B1
:101DC0001803584301EB800006EB0010B0FBF5F060
:101DD00000F00F0021681044886070BDA0FB010175
:101DE00092185B41FEF7ECF90146B0FBF5F00201F9
:101DF000B1FBF5F06FF01803584301EB800006EBE0
:101E0000C000B0FBF5F000F0F80002EB4002B1FBBF
:101E1000F5F0584301EB800006EBC000B0FBF5F095
:101E200000F00700D6E70000001001400014014058
:101E30002DE9F843984617460D460446089E24E0CF
:101E4000701C22D0FEF74CFCA0EB0800B0421AD860
:101E5000CEB12068C168490717D5802D15D0402D17
:101E600013D00168C94309070FD4016800254068F1
:101E700000902046FFF72EFF0820606484F8405051
:101E80000120BDE8F8830320FBE72068006835EAFD
:101E9000000004D00020B842D2D00020F1E7012099
:101EA000F9E7D0F8D422002100EB8200D0F8C0027C
:101EB00080F820100846704710B5D0F8D41200EB17
:101EC0008102D2F8C00238B1D2F8C4224178007839
:101ED000D2689047002010BD032010BD70B51E4E83
:101EE0000446317800F0E4FB3078002500F00F0064
:101EF00000EB800004EB800080F82350C56171780E
:101F0000204600F0D5FB707800F00F0000EB800059
:101F100004EB800080F86351C0F85C51D4F8D4021F
:101F200004EB8000D0F8C01299B1D0F8C4028068E8
:101F30008047D4F8D40204EB8000D0F8C00200F04F
:101F4000BBFFD4F8D40204EB8000C0F8C052C4F840
:101F5000BC52002070BD00007805002010B5D0F8FC
:101F6000D41200EB8102D2F8C0421CB1E069012812
:101F700002D009E0032010BDD2F8C4226178207895
:101F8000D26890470020E061002010BD0A21018046
:101F900000487047B405002070B5054681210A4805
:101FA00000F009FB04460121074800F004FB102162
:101FB00005220CB1A180A27108B181808271292013
:101FC0002880014870BD00007C05002070B50546E2
:101FD00081210A4800F0EFFA04460121074800F089
:101FE000EAFA102105220CB1A180A27108B181800A
:101FF000827129202880014870BD00007C050020E6
:1020000070B5054681210A4800F0D5FA0446012141
:10201000074800F0D0FA102105220CB1A180A2716E
:1020200008B18180827129202880014870BD00009C
:102030007C0500202DE9F0410446242000F03EFFFD
:1020400005004FF000084CD0D4F8D402294E04EB20
:1020500080001023C0F8C052C4F8BC52317805206B
:1020600001F00F0101EB810104EB81010322C86142
:10207000717801F00F0101EB810104EB8101C1F8DE
:102080005C013178204600F03AFC3078012700F0FE
:102090000F0000EB800004EB8000102380F8237019
:1020A00003227178204600F02AFC707800F00F00BF
:1020B00000EB800004EB800080F8637185F82080DD
:1020C000D4F8D40204EB8000D0F8C4024068804702
:1020D00010232A467178204600F01DFC0020BDE840
:1020E000F081D4F8D412022004EB8101C1F8C0823F
:1020F000F5E700007805002010B5D0F8D41200EB09
:102100008101D1F8C02232B104491023497800F08E
:1021100002FC002010BD032010BD00007805002047
:1021200039B1D0F8D42200EB8200C0F8C4120020EC
:10213000704703207047000010B51346D0F8D42232
:1021400000EB8202D2F8C02222B190F89C42032C0C
:1021500002D00EE0032010BD92F820400CB1012007
:1021600010BD012482F820400A460349097800F096
:102170007CFC002010BD0000780500202DE9FC410A
:102180000646D0F8D4020C4606EB80000022D0F8B8
:10219000C012ADF80020ADF80420154631B1227808
:1021A00012F0600257D0202A78D102E00320BDE867
:1021B000FC8160780C2871D2DFE800F08B241109D3
:1021C0008B8B8B8B8B150D06A078086186E0012226
:1021D0003046103176E06088000A48617EE00122D6
:1021E000304614316EE0E088102804D9214630468C
:1021F00000F0AEF8DAE70120C861E288304600F06E
:10220000B2F86BE06088E388C7B2010A3A4636A0AC
:1022100001F0A4FBD6F8D40206EB8000D0F8C4127B
:10222000096999B1E188ADF80010D0F8C402694697
:10223000026938469047010008D0BDF800202AB155
:10224000E088904200D8024630463BE021463046C6
:1022500000F07EF842E06278062A10D003DC3AB142
:10226000012A36D13AE00A2A25D00B2A31D12CE0B6
:1022700096F89C0203282CD1022201A9E4E7618888
:102280002222B2EB112F0AD1E28840F2AC418A42FD
:1022900000D90A46D0F8C402016809E00AE021200A
:1022A000B0EB112F15D1E2881949092A00D909226A
:1022B0000029C9D10DE096F89C02032809D101221A
:1022C0003046183100F06BF808E096F89C020328BD
:1022D00006D02146304600F03BF80325284666E745
:1022E000A0788861FAE700004745545F5245504F97
:1022F000525420747970653D253032582069643D10
:1023000025303258206C656E3D25640D0A000000B2
:10231000A805002010B5D0F8B822002452689047D4
:1023200000B10324204610BD0020704700207047F4
:10233000134610B50A46002100F0EDFA002010BD4A
:10234000134610B50A46002100F08FFB002010BD97
:1023500010B50446802100F069FB2046BDE810401E
:10236000002100F063BB10B50323C0F89432C0F81D
:102370005421C0F858211346C0F864110A460021C0
:1023800000F0C9FA002010BD10B50521C0F8941264
:1023900000231A46194600F0BEFA002010BD10B501
:1023A0000223C0F8943242618261134641620A46B8
:1023B000002100F05AFB002010BD10B50421C0F828
:1023C000941200231A46194600F04FFB002010BD5E
:1023D00010B50A46024903A000F01BF9004810BDE1
:1023E00030090020437573746F6D204849442043C1
:1023F0006F6E666967000000122008800048704711
:102400003000002010B50A46024903A000F001F98F
:10241000004810BD30090020437573746F6D20486B
:10242000494420496E74657266616365000000006E
:1024300004200880004870472C00002010B50A4690
:10244000024903A000F0E5F8004810BD3009002063
:1024500053544D6963726F656C656374726F6E6916
:102460006373000010B50A46024903A000F0D1F8DA
:10247000004810BD3009002053544D3332204375BD
:1024800073746F6D2048756D616E20696E7465722E
:10249000666163650000000010B51A2008800A48D4
:1024A0000168001D0468001D0068081809D0082292
:1024B0000649FFF75BFA0549042210312046FFF771
:1024C00055FA0248801E10BD107AFF1F46000020FA
:1024D000F8B504460020ADF8000048880D46010A12
:1024E00008295FD2DFE801F05E0409175E5E3C4513
:1024F000D4F8B412207C0A6819E0207C0226002857
:10250000D4F8B80205D0C16A6846884701464670CB
:1025100039E0816AF8E7C0B2062843D2DFE800F06C
:10252000030A1014181CD4F8B402426805E0694686
:1025300090471CE0D4F8B402826892B3207CF6E79E
:10254000D4F8B402C268F8E7D4F8B4020269F4E738
:10255000D4F8B4024269F0E7D4F8B4028269ECE737
:10256000207CF0B9D4F8B802416B68468847014630
:1025700009E0207CA8B9D4F8B802016B6846884706
:10258000014607204870EA888AB1BDF8000040B1D2
:10259000824200D90246ADF800202046FFF7FFFE38
:1025A000F8BDFFE729462046FFF7D2FEF8E72046B0
:1025B000FFF703FFF4E778B50E464288017800255F
:1025C00004468A4212D9ADF800100AE0694600F0CC
:1025D00019F84178052904D181780546B14205D022
:1025E00000256188BDF800209142EFD8284678BDCB
:1025F0000146002002E0401CC0B2491C0A78002AB3
:10260000F9D170470A8803781A440A80017808448F
:10261000704770B516460D46002820D00446FFF7D7
:10262000E7FF022101EB40014FF40070814204D822
:102630002046FFF7DDFF4000801C30803078287096
:10264000032068700220002206E02954401CC0B21A
:102650002A54401CC0B2641C21780029F5D170BDF9
:1026600001004FF0000004D0012901D0022901D05F
:10267000032070470120704778B10023C0F8B832BA
:10268000C0F8C432C0F8D03209B1C0F8B412012188
:1026900080F89C12027000F0CBB80320704710B590
:1026A000D0F8C802FEF732F9BDE81040FFF7D8BFF6
:1026B00010B5D0F8C802FEF704F9BDE81040FFF7E6
:1026C000CFBF70B50446002521B194F89C020328C1
:1026D00046D050E0D4F8941204F11400022939D104
:1026E000818942688A420AD9511A41608289016906
:1026F0001144016142682046FFF722FE0FE091423B
:1027000014D10068884211D3D4F8981288420DD2AF
:10271000002211462046FFF713FEC4F8985200230A
:102720001A461946204600F0F6F813E094F89C0289
:10273000032808D1D4F8B802C16821B1C4F8D45232
:10274000C168204688478021204600F06FF9204666
:10275000FFF71AFE94F8A00268B184F8A0520AE0CC
:10276000D4F8B802426932B1C4F8D4524269204662
:102770009047002800D1002070BD10B5044600220B
:1027800021B194F89C02032834D03EE0D4F894128E
:1027900004F5AA70032938D1818943688B420ED988
:1027A000591A416082890169114401614268808936
:1027B000824200D802462046FFF7BAFD25E094F891
:1027C000AA0210F01F0003D0012802D0022800D076
:1027D000002294F89C02032808D1D4F8B8020169B9
:1027E00021B1C4F8D4220169204688472046FFF76A
:1027F000E4FD0AE0D4F8B802836933B1C4F8D42206
:10280000826920469047002800D1002010BD00209A
:10281000704710B50024012180F89C12D0F8B8222E
:1028200022B152680179904700B10324204610BDBF
:1028300010B5017839BB15490222C1F8E004C0F88F
:10284000C8124FF0A040086004200871CA7100202F
:1028500088714A728872C87208738873C873084690
:10286000FEF7D6FB08B1FDF72EFE80210748FDF7E5
:10287000D8FF402200210548FDF7D7FF8022012123
:102880000248FDF7D2FF002010BD0000580B0020C9
:102890000A0601F07F01D0F8C80201EBC10100EB8C
:1028A000810001D5807D704790F85602704710B5C1
:1028B000D0F8D42200EB8202D2F8B82222B190F8EC
:1028C0009C32032B02D004E0032010BD126A02B137
:1028D0009047002010BD10B5D0F8D42200EB820242
:1028E000D2F8B82222B190F89C32032B02D004E037
:1028F000032010BD526A02B19047002010BD10B5F0
:102900001C461346D0F8C8022246FEF72CF8BDE854
:102910001040FFF7A5BE10B5D0F8C802FEF754F876
:10292000BDE81040FFF79CBE2DE9F04100260125CF
:10293000044680F89C52C4F894626660C4F8A462AD
:1029400080F8A062D0F8B80230B1426822B100210C
:102950002046904700B1032600224023114620461E
:10296000FFF7CDFF402784F86351A4F860713B4620
:10297000002280212046FFF7C2FF84F823502784DD
:102980003046BDE8F08190F89C12042903D190F8FC
:102990009D1280F89C120020704710B590F89C1290
:1029A000032905D1D0F8B81211B1C96901B188471E
:1029B000002010BD01740020704710B5D0F8C80287
:1029C000FEF7ECFBBDE81040FFF74ABE70B50446C9
:1029D00000F2AA20054600F051F80120C4F8940244
:1029E000B4F8B002C4F8980294F8AA0210F01F01DB
:1029F0000AD001290ED0022912D000F08001204611
:102A0000BDE8704000F012B829462046BDE870408D
:102A100000F0D0B829462046BDE8704000F013BA57
:102A200029462046BDE8704000F05AB910B5D0F8EC
:102A3000C802FDF7E5FFBDE81040FFF711BE10B575
:102A4000D0F8C802FEF7C4FBBDE81040FFF708BE8F
:102A500090F89C12042903D090F89C1280F89D12E3
:102A6000042180F89C120020704710B5D0F8C802ED
:102A7000FDF7FFFFBDE81040FFF7F2BD70B505465A
:102A800011F8010B2870087868704C1C2046FFF77D
:102A9000CAF86880A41C2046FFF7C5F8A880A01CCF
:102AA000FFF7C1F8E88070BD38B504460020ADF8E6
:102AB0000000A1B1C4F8B812D4F8D40204EB80002D
:102AC000D0F8B802C16A19B168468847C4F8D00284
:102AD000D4F8D802401CC4F8D802002038BD032026
:102AE00038BD02460020D2F8B832002B02D01B6855
:102AF00010461847704700002DE9F04188462B4EDC
:102B00008978002504463170012906D941462046BE
:102B1000FFF71EFC0320BDE8F08194F89C02022719
:102B200002280CD003281DD041462046FFF710FC98
:102B300031782046FFF7EEFB03252846EBE789B303
:102B400020466160FFF7CDFF050004D041462046D6
:102B5000FFF7FEFB1DE02046FFF72FFC032084F863
:102B60009C02EAE7C1B1606888421BD0C1B220462E
:102B7000FFF7D0FB317820466160FFF7B2FF050018
:102B800010D041462046FFF7E3FB21792046FFF7AE
:102B9000C1FB84F89C72D0E784F89C722046616087
:102BA000FFF7B8FB2046FFF708FCC6E73C0500200E
:102BB000FFF745BF2DE9F0410A78002512F06002C9
:102BC0000CD0202A01D0402A7DD1D0F8D42200EBAD
:102BD0008202D2F8B8229268904731E04B78002206
:102BE00001260A2B6FD2DFE803F041666E586E08AB
:102BF000056E2D29FFF76CFC67E004468888D8B97C
:102C0000C888C8B94888802816D200F07F0794F891
:102C10009C02032810D084F89E7239462046FFF7A4
:102C2000CCFE2046FFF7C9FB1FB1022084F89C02AE
:102C30004BE084F89C6248E0204644E0FFF75CFFEC
:102C4000054642E0CB88012B3DD190F89C32012B08
:102C500004D0022B02D0032B35D104E08260012284
:102C600000F1080116E00122011D13E090F89C22FA
:102C7000012A03D0022A01D0032A24D1CA88022AB9
:102C800021D1C660D0F8A41209B10321C16002228B
:102C900000F10C01FFF783FB17E04A88012A02D0FC
:102CA000022A03D00FE0C0F8A46216E08988090A5E
:102CB00080F8A01211E090F89C32012B08D0022B72
:102CC00006D0032B04D0FFF743FB2846BDE8F08174
:102CD00049880129F9D1C0F8A422FFF76EFBF4E777
:102CE0002DE9F041054608780C790E464FF00008B2
:102CF00010F060000BD0202801D040286BD1214675
:102D00002846FFF711FBFF2800D0D8B398E0707871
:102D1000C8B3012824D003285DD195F89C0202286D
:102D200002D0032857D10CE0002C54D0802C52D074
:102D300021462846FFF77AFE80212846FFF776FED7
:102D40007EE0708840B93CB1802C05D0C88818B9A5
:102D500021462846FFF76AFE2846FFF72EFB6FE064
:102D600095F89C020228DFD0032866D1708888BBC2
:102D7000600603D021462846FFF791FC2846FFF75E
:102D80001CFBBCE700E00AE0C5F8D402D5F8B802A5
:102D90008268FAB1314628469047804650E095F85F
:102DA0009C020027022802D0032846D114E00CB16F
:102DB000802C42D1200604F07F0000EB800005EB60
:102DC000800101D5143101E001F5AA71022201F858
:102DD0000E7F2EE034E030E0200604F00F0000EB20
:102DE000800005EB80000AD590F8230028B304F09A
:102DF0007F0000EB800005EB800614360AE090F8B7
:102E00006301D0B104F07F0000EB800005EB800689
:102E100006F5AA764CB1802C07D021462846FFF74C
:102E200037FD10B10120B07300E0B773022206F144
:102E30000E012846FFF7B3FA02E02846FFF788FAAA
:102E40004046BDE8F08170B50546087800240E467E
:102E500010F0600003D0202801D0402827D195F839
:102E60009C02012803D0022801D003281FD1B0887A
:102E7000C1B201291AD8C1B22846FFF757FAFF2874
:102E80000CD058B9D5F8B8128A683AB1C5F8D4024E
:102E90008A68314628469047044600E00324F088BB
:102EA000204307D12846FFF788FA03E03146284639
:102EB000FFF74EFA204670BD70470000004870478B
:102EC000300B002070B50A78012302F00F054E7810
:102ED000AB401B4CD0F81C58012E17D045EA0343D9
:102EE000C0F81C3800EB4210D0F8002B12040BD4B1
:102EF000D0F8002B0B890979C3F30A031A4344EA7B
:102F000081410A43C0F8002B002070BD9BB21D43D5
:102F1000C0F81C5800EB4210D0F800391B04F3D461
:102F2000D0F800390D890979C5F30A0589042B43C6
:102F300041EA82510B432343C0F80039E4E7000023
:102F400000800010D0F800196FF30A01C0F80019D2
:102F5000D0F8041841F48071C0F8041800207047BC
:102F600070B50D460446C2F3072104981E46012998
:102F70001BD0E06840F04000E060204600F032F8EE
:102F8000C6F307210029A16B26D021F48031A1636B
:102F9000C5F30741012907D1A16841F00601A160ED
:102FA000A16841F02001A16070BDA16B21F48031C6
:102FB000A163E1680A4A1140E160E16821F440112F
:102FC000E160C0B2012803D1E06840F48010E06005
:102FD000204600F007F8DBE741F48031D7E7000036
:102FE000BFFFBDFF08B5002100914FF07061009A4E
:102FF000521C00928A4210D80269002AF7DA0A228B
:103000000092521E0092FCD1026942F0010202615C
:10301000009A521C00928A4201D9032008BD02691D
:10302000D207F5D1002008BD30B54C780A780123CD
:1030300000EB4212012C2CD0D2F8004B002C0BDA02
:10304000D2F8004B44F00064C2F8004BD2F8004BB9
:1030500044F08044C2F8004BD0F83C580C7804F09F
:103060000F0403FA04F425EA0444C0F83C48D0F8FD
:103070001C48097801F00F018B4024EA0341C0F895
:103080001C18D2F8000B19490840C2F8000B0020A8
:1030900030BDD2F80049002C0BDAD2F8004944F0D8
:1030A0000064C2F80049D2F8004944F08044C2F8F4
:1030B0000049D0F83C480D7805F00F0503FA05F5F6
:1030C000ADB2AC43C0F83C48D0F81C48097801F0D8
:1030D0000F018B4099B28C43C0F81C48D2F800090C
:1030E00003490840C2F80009D1E700000078F3EF77
:1030F000007833ECD0F8001E21F00301C0F8001E68
:10310000D0F8041821F00201C0F80418002070471C
:10311000D0F8001E21F00301C0F8001ED0F80418FA
:1031200041F00201C0F80418002070472DE9F04F6B
:1031300000250E46044617462846294604EB800221
:10314000C2F80411401C0F28F8D3C3F307405FEA0C
:103150000009204616D0806B20F40012A263A06BF9
:1031600040F40022A263084688462146C4F8000EB7
:10317000C7F30720012817D00846D1F8001841F0FE
:10318000030118E0D0F8040840F00202C4F8042853
:10319000A06B40F40012A263A06B20F40022A26393
:1031A000A06B20F48022DDE7300E0846D1F800182D
:1031B00001D041F00101C0F80018102100F08BFA95
:1031C00000B10125204600F06AFA00B10125404611
:1031D000C4F81088C4F81488C4F81C8800214FF083
:1031E000006B4FF0904E4FF67F3AF2B215E000BF01
:1031F00004EB4113D3F800C9BCF1000F06DA11B19A
:10320000C3F800E904E0C4F800B901E0C3F800091C
:10321000C3F81009C3F808A9491C8A42E8D800215C
:1032200015E000BF04EB4113D3F800CBBCF1000F55
:1032300006DA11B1C3F800EB04E0C4F800BB01E00A
:10324000C3F8000BC3F8100BC3F808AB491C8A4243
:10325000E8D8D4F8101821F48072C4F81028A061BE
:103260006FF080406061C6F3074018B9A06940F074
:103270001000A061A0690A490843A061C7F3074094
:1032800018B1A06940F00800A061B9F1010F03D1A5
:10329000A06904490843A0612846BDE8F08F0000FA
:1032A00000383C8004000040816821F00101816009
:1032B0000020704710B5036C134CA34203D9D0F81B
:1032C000003B002B1EDB0023C0F8103BD0F8103B66
:1032D00043F40023C0F8103BD0F8103B43F0180330
:1032E000C0F8103BD0F8103B43F0C043C0F8103B8F
:1032F000012907D1C0F8142BD0F8001B41F0802120
:10330000C0F8001B002010BD0A30544F4A780B78DB
:10331000012A00EB43100BD0D0F8002B22F400124E
:10332000C0F8002B0979032914D0022912D017E024
:10333000D0F8002922F40012C0F8002909790329E5
:1033400001D002290CD1D0F8001941F08051C0F809
:10335000001905E0D0F8001B41F08051C0F8001BB7
:10336000002070470A784B78D1B200EB4110012B56
:1033700012D0D0F8001B002906DB2AB1D0F8001BC0
:1033800021F08041C0F8001BD0F8001B41F400116F
:10339000C0F8001B00207047D0F80019002906DB98
:1033A0002AB1D0F8001921F08041C0F80019D0F8F6
:1033B000001941F40011C0F80019EBE7F8B50C78DA
:1033C0004F788B4DE3B26FF0604600EB4313012F53
:1033D00029D0D3F8107B6FF31207C3F8107BD3F812
:1033E000107B2F40C3F8107B002C7DD00D69002D81
:1033F0007BD08C6825446D1EB5FBF4F5ADB26C43F3
:103400000C62D3F8104B06EAC5452C43C3F8104BA9
:10341000D3F8104B0D6AC5F312052C43C3F8104BBB
:10342000012A70D0CBE00F69EFB1D3F810796FF3B8
:103430001207C3F81079D3F810792F40C3F8107928
:103440000CB30F698D682F447F1EB7FBF5F5D3F8D9
:103450001079ADB206EAC5463743C3F810790E7944
:10346000012E1CD02AE0D3F810692E40C3F8106951
:10347000D3F8105945F40025C3F81059D3F8105962
:103480006FF3120520E00E698D68AE4200D90D6120
:10349000D0F8105945F40026C0F810690EE0D3F8B2
:1034A000106926F0C046C3F81069D3F810694FF0D0
:1034B000C04707EA45752E43C3F81069D3F8105981
:1034C0000E69C6F312063543C3F81059012A1BD002
:1034D00000EB4413D3F8004944F00444C3F8004916
:1034E0000C79012C31D001E044E057E00A695AB36D
:1034F000D0F83428097801F00F03012199400A43DC
:10350000C0F8342871E056E0CA691AB100EB4413E0
:10351000C3F81429097901290ED1D0F80818C90572
:1035200000EB4411D1F8002902D442F0005201E02E
:1035300042F08052C1F8002900EB4410D0F8001985
:1035400041F00441C0F800194FE0D0F80848E40504
:10355000D3F8004902D444F0005401E044F0805410
:10356000C3F8004900920A8A93B20A78C96800F049
:10357000DFF93AE00C690CB18C680C618C680C6264
:10358000D0F8105BC4F312042543C0F8105BD0F8E8
:10359000104B44F40024C0F8104B41E7D3F8104B13
:1035A0008D68C5F312052C43C3F8104BD3F8104BAC
:1035B00044F4002432E7CA680AB1C3F8142B09792D
:1035C00001290CD1D0F80808C005D3F8000B02D4AB
:1035D00040F0005001E040F08050C3F8000BD3F8F9
:1035E000000B40F00440C3F8000B0020F8BD0000C1
:1035F000FFFF07E038B50022009213464D780A78A5
:1036000042F2107400EB4212012D19D0D2F8005B87
:10361000002D3CDAD2F8005B45F00065C2F8005B93
:103620000A7800EB4212D2F8005B45F08045C2F800
:10363000005B009A521C0092A24221D9012326E08D
:10364000D2F80059002D22DAD2F8005945F0006571
:10365000C2F800590A7800EB4212D2F8005945F03E
:103660008045C2F80059009A521C0092A242E5D847
:103670000A7800EB4212D2F80029002AF3DB06E0B8
:103680000A7800EB4212D2F8002B002AD1DB184650
:1036900038BD816841F0010181600020704708B5A4
:1036A00000214FF070620091009B5B1C00939342DD
:1036B0000AD80369002BF7DA009110210161009903
:1036C000491C0091914201D9032008BD0169C90636
:1036D000F5D4002008BD18B500224FF070630092A9
:1036E000009C641C00949C420CD80469002CF7DAFE
:1036F0000092202242EA811101610099491C009147
:10370000994201D9032018BD01698906F5D400202A
:1037100018BDD0F8080810F0060004D0022803D025
:10372000062801D00F20704702207047406900F042
:1037300001007047D0F81818D0F81C08084080B273
:103740007047D0F81818D0F81C080840000C7047D3
:1037500010B5D0F81038D0F8342801F00F0400EB81
:103760004110E24002F00102D0F8080943EAC21217
:10377000104010BD00EB4111D1F8081BD0F814081F
:1037800008407047416980690840704730B503467A
:103790000846940802F00301002203F5805303E079
:1037A0001D6840F8045B521CA242F9D300290BD0DB
:1037B0001C680022D50024FA05F3491E521C090496
:1037C00000F8013B090CF5D130BD70B50446C06866
:1037D000002520F0C040E060012901D079B120E04F
:1037E000E06840F00050E0600A20FCF76FFE60697E
:1037F0000A3510F0010F10D1C82DF5D30DE0E068A7
:1038000040F08040E0600A20FCF760FE60690A3505
:1038100010F0010F01D0C82DF5D3C82D01D0002024
:1038200070BD012070BDD0F8002822F4FE62C0F8FF
:103830000028D0F800284FF4FE6303EA01110A4380
:10384000C0F8002800207047022A3ED1264A274BA4
:103850000A449A4201D20F2138E0254A254B0A44F6
:103860009A4201D20E2131E0234A244B0A449A4263
:1038700001D20D212AE0224A224B0A449A4201D267
:103880000C2123E0204A214B0A449A4201D20B2109
:103890001CE01F4A1F4B0A449A4201D20A2115E03C
:1038A0001D4A1E4B0A449A420FD31D4A1D4B0A441F
:1038B0009A4201D2082109E01B4A11441B4A914255
:1038C00001D2072102E0062100E00921C26822F4AA
:1038D0007052C260C2684FF4705303EA81210A43F8
:1038E000C260002070470000405327FF00350C00E5
:1038F000401E1BFF40420F0000DC0BFF804F1200F8
:10390000808CF9FE20D6130060B6E5FE60E3160059
:1039100000D3CEFE40771B00C05BB3FEC0912100F8
:1039200000CA91FE20753800E05459FEE09C410029
:1039300010B5029C74B9DB1C9C0800EB023000231C
:1039400000F5805004E000BF51F8042B02605B1CBE
:10395000A342F9D3002010BDFEE700000FB4054BD1
:1039600010B503A9044A029800F028F810BC5DF8CD
:1039700014FB0000213E0008C00500200907090EC5
:10398000002804DB00F1E02080F80014704700F00C
:103990000F0000F1E02080F8141D704702E008C815
:1039A000121F08C1002AFAD170477047002001E0B9
:1039B00001C1121F002AFBD1704700002DE9FF4F03
:1039C0008DB00F460546002606E025280BD0DDE920
:1039D0000F1290476D1C761C28780028F5D111B085
:1039E0003046BDE8F08F0024A246A1460122EC49F2
:1039F00000E0044315F8013F203B02FA03F00842BF
:103A0000F7D128782A2810D06FF02F022878A0F15B
:103A10003001092914D80AEB8A0102EB410144F074
:103A2000020400EB010A6D1CF0E701CF5FEA000A17
:103A300003D544F40054CAF1000A44F002046D1C9A
:103A400028782E2817D115F8010F44F004042A28ED
:103A50000ED06FF02F022878A0F1300109290AD882
:103A600009EB890102EB410100EB01096D1CF2E752
:103A700057F8049B6D1C28786C280FD006DC4C2866
:103A800017D068280DD06A2814D104E0742810D00B
:103A90007A280FD10DE044F400140AE044F48014B5
:103AA00001E044F440146978814202D104F58014A5
:103AB0006D1C6D1C2A786E2A1FD00CDC632A31D055
:103AC00004DC002A8BD0582A11D1A3E0642A68D0E4
:103AD000692A0CD165E0732A2ED004DC6F2A73D0DA
:103AE000702A04D19BE0752A6FD0782A6ED01046D8
:103AF000DDE90F129047761C50E1C4F30250022812
:103B000006D0032809D0042801CF09D0066045E17A
:103B100001CFF117C0E9006140E101CF06803DE12E
:103B200006703BE117F8040B8DF8000000208DF8BB
:103B30000100EB46012003E057F804BB4FF0FF30D3
:103B400061074FF0000102D40DE008F10101884641
:103B500049450FDA8045F8DB1BF808100029F4D13D
:103B600008E008F1010188468142FADB1BF80810E1
:103B70000029F6D1DDE90F23AAEB08008146214692
:103B800000F036F9304400EB080604E0DDE90F12DE
:103B90001BF8010B9047B8F10108F7D221464846BF
:103BA000F7E00A21C4F302534FF0000B0891022BF7
:103BB00004D001CFC117032B09D00AE0FF1D27F065
:103BC0000707F7E8020108E032E01FE020E000B25A
:103BD000C117042B01D140B2C117031E71F10003BC
:103BE00007DA4FF0000CD0EB0C006CEB01012D2339
:103BF00002E0230504D52B238DF82430012303E0B4
:103C0000E30701D02023F7E7984658E00A2110E0A7
:103C100010210EE010204FF0000B08900CE0102156
:103C20004FF0000B44F004044FF00809089103E042
:103C300008214FF0000B0891C4F30253022B04D06B
:103C400001CF0021032B06D006E0FF1D27F0070758
:103C5000F7E8020103E080B2042B00D1C0B24FF0BC
:103C6000000823072BD5702A07D0DDF820C08CF080
:103C7000100C5CEA0B0C05D00EE040238DF82430CC
:103C8000012308E050EA010306D030238DF82430E8
:103C90008DF8252002239846DDF820C08CF0080C12
:103CA0005CEA0B0C0BD150EA010301D1630706D586
:103CB00030238DF824304FF00108A9F10109582A6A
:103CC00004D038A20B9208AA0A920BE03AA2F9E7B4
:103CD0005B46089AFCF774FA0B9B9B5C0A9A521E8F
:103CE0000A92137050EA0102F2D10A98ADEB00007B
:103CF00000F1200B600702D524F4803401E04FF07E
:103D00000109D94502DDA9EB0B0000E0002000EB22
:103D10000B0141440890AAEB010AE00306D4DDE957
:103D20000F232146504600F063F806444FF0000987
:103D300008E009A911F80900DDE90F12904709F11F
:103D40000109761CC145F4DBE0030CD5DDE90F2346
:103D50002146504600F04CF8064404E0DDE90F121D
:103D600030209047761C0899481E08900029F5DC01
:103D700008E00A980A990078491C0A91DDE90F12B7
:103D80009047761CBBF10001ABF1010BF1DC214641
:103D90005046DDE90F2300F019F806446D1C1BE6C0
:103DA0000928010030313233343536373839616211
:103DB00063646566000000003031323334353637D5
:103DC0003839414243444546000000002DE9F041A6
:103DD000044600251E461746880404D405E03946EB
:103DE0002020B0476D1C641EF9D52846BDE8F0813F
:103DF0002DE9F041044600251E469046C80301D532
:103E0000302700E02027880404D505E041463846E5
:103E1000B0476D1C641EF9D52846BDE8F08100004E
:103E200013B56423012269460248FDF74DFD009851
:103E30001CBD0000C4050020174808B50121017011
:103E40000021A0F801100F22C2708180C180018181
:103E50004181FCF753FCFDF7EDFEFDF7A3FDFDF7F7
:103E6000F7FDFDF7BDFDFDF7D7FD6420FCF72EFB48
:103E70000AA004220068009069460948FEF75CF930
:103E8000054C241FFCF72CFC2168401A3228F9D37A
:103E9000FCF726FC2060F5E7040000200701030082
:103EA000540600200000000000000000010203048E
:103EB000060708090000000001020304DC3E0008B8
:103EC00000000020C4050000A8020008804200088D
:103ED000C40500207C0E0000AC390008120001501F
:103EE000060100000F0001100AF923000831240028
:103EF000083D0412650412990412D114120514101D
:103F000009040309041201000227100B4083045323
:103F10005700020102033D0004151A030001100AB4
:103F200001120101281300202863101D0000050163
:103F30000904A101A1008501050919012940150005
:103F400025019540750181021A1035300931093279
:103F50000933093409350937093616018026FF7FF0
:103F6000751095088102C00600FF0900A10185A116
:103F70000901150026040075089501910209021F28
:103F800021085203103004047520083004057540E0
:103F900008420608B1375281375281375281375271
:103FA000813752813711762013050F0992A10285BE
:103FB00002099F09A009A409A60994B110123500AD
:103FC000450175019505810295038103C0092123EF
:103FD000500C01092215012528350145288B900830
:103FE00025A10209260927D6100C400941094209DA
:103FF00043250B150128320BC3100B00C0095009D3
:1040000054095109A7D7100DFF7F350046FF7F6681
:10401000031055FDF8200B049102550066000009BD
:10402000521C12001C5310275D12536D120845528A
:1040300008103755A141119E12009A11F221BB229E
:1040400056091017950691030957A1020B01000AA2
:1040500000661400150027A08C004D224707115E52
:104060004542316921F052582B400426FD7F1A3415
:1040700005C0C0095A04E1E120065B095D1600B5E0
:10408000233600B611B112021630045C095EC0205E
:104090000727FF7F00004705200675209102456A2B
:1040A0001255ED165F4FF6032C1A230816035730EE
:1040B000040375065B6185337502822B16000A14B2
:1040C000043600801D430960B1510E20046109626D
:1040D00077A1895005096309648D126598314213EF
:1040E000096E78F204C3727038496A2114A26F6EA7
:1040F000100595017510281671391755FE3B469F1E
:104100003B2107512F3004721501EB333501ED458A
:10411000BC398551F212737A0212057A81665569AB
:104120001309742BF2062BD0047509762D4602E094
:1041300012772FF20A2F1A7878180679097A097BF4
:10414000236A03646A7C4223FF006912903AE20BFF
:104150003A1004C009951710040C099641180C97E1
:1041600009980999099A099B099C6A1A06EE3A0866
:104170000A127D22E8040D097E901004C009AB19D3
:104180000A2411F41AB168280401093BF01D4B03FD
:10419000100646FF01750A152C06027506B101715D
:1041A0000312894A3006120922252832319C100553
:1041B000B102098B9520068C098D098ED619F9520A
:1041C000034A1B09ACD13BFFFFD1210729B42117BA
:1041D000127F462C04130980E8031E153A0331238D
:1041E0003121114C16830B1509515A1C04A909AA37
:1041F000CD036E02D9032189118F100D03C0C06C4D
:10420000000020550300080904125904120D0C2D5A
:10421000C5046E1029053F24F430052C0D3520000F
:1042200008DD1E00087D210008400510065D1F0006
:1042300008A31043B91E106D580512CD1812990429
:10424000120130128D0C1E8175052C0F09022900F8
:10425000010100C0320904000002450520140921B3
:104260001101000122AC04070581031000050705B8
:104270000107A11A11844F0A0684055E0177050023
:040000050800018965
:00000001FF
